Component: ARM Compiler 5.06 update 6 (build 750) Tool: armlink [4d35ed]

==============================================================================

Section Cross References

    startup_stm32l051xx.o(RESET) refers to startup_stm32l051xx.o(STACK) for __initial_sp
    startup_stm32l051xx.o(RESET) refers to startup_stm32l051xx.o(.text) for Reset_Handler
    startup_stm32l051xx.o(RESET) refers to stm32l0xx_it.o(i.NMI_Handler) for NMI_Handler
    startup_stm32l051xx.o(RESET) refers to stm32l0xx_it.o(i.HardFault_Handler) for HardFault_Handler
    startup_stm32l051xx.o(RESET) refers to stm32l0xx_it.o(i.SVC_Handler) for SVC_Handler
    startup_stm32l051xx.o(RESET) refers to stm32l0xx_it.o(i.PendSV_Handler) for PendSV_Handler
    startup_stm32l051xx.o(RESET) refers to stm32l0xx_it.o(i.SysTick_Handler) for SysTick_Handler
    startup_stm32l051xx.o(RESET) refers to stm32l0xx_it.o(i.RTC_IRQHandler) for RTC_IRQHandler
    startup_stm32l051xx.o(RESET) refers to stm32l0xx_it.o(i.EXTI2_3_IRQHandler) for EXTI2_3_IRQHandler
    startup_stm32l051xx.o(RESET) refers to stm32l0xx_it.o(i.DMA1_Channel4_5_6_7_IRQHandler) for DMA1_Channel4_5_6_7_IRQHandler
    startup_stm32l051xx.o(RESET) refers to stm32l0xx_it.o(i.I2C1_IRQHandler) for I2C1_IRQHandler
    startup_stm32l051xx.o(RESET) refers to stm32l0xx_it.o(i.USART2_IRQHandler) for USART2_IRQHandler
    startup_stm32l051xx.o(.text) refers to system_stm32l0xx.o(i.SystemInit) for SystemInit
    startup_stm32l051xx.o(.text) refers to entry.o(.ARM.Collect$$$$00000000) for __main
    opt3001.o(i.OPT_Read_ID) refers to stm32l0xx_hal_i2c.o(i.HAL_I2C_Mem_Write) for HAL_I2C_Mem_Write
    opt3001.o(i.OPT_Read_ID) refers to printf6.o(i.__0printf$6) for __2printf
    opt3001.o(i.OPT_Read_ID) refers to stm32l0xx_hal_i2c.o(i.HAL_I2C_Mem_Read) for HAL_I2C_Mem_Read
    opt3001.o(i.OPT_Read_ID) refers to i2c.o(.bss) for hi2c1
==============================================================================

Removing Unused input sections from the image.

    Removing startup_stm32l051xx.o(HEAP), (512 bytes).
    Removing opt3001.o(.rev16_text), (4 bytes).
    Removing opt3001.o(.revsh_text), (4 bytes).
    Removing opt3001.o(i.OPT_Read_ID), (124 bytes).
    Removing wakeup.o(.rev16_text), (4 bytes).
    Removing wakeup.o(.revsh_text), (4 bytes).
    Removing wakeup.o(i.LP_Task), (56 bytes).
    Removing wakeup.o(.data), (1 bytes).
    Removing wakeup.o(.data), (1 bytes).
    Removing wakeup.o(.data), (2 bytes).
    Removing my_string.o(.rev16_text), (4 bytes).
    Removing my_string.o(.revsh_text), (4 bytes).
    Removing my_string.o(i.Find_AttributeStringAll), (204 bytes).
    Removing my_string.o(i.smart_array), (44 bytes).
    Removing main.o(.rev16_text), (4 bytes).
    Removing main.o(.revsh_text), (4 bytes).
    Removing gpio.o(.rev16_text), (4 bytes).
    Removing gpio.o(.revsh_text), (4 bytes).
==============================================================================

Image Symbol Table

    Local Symbols

    Symbol Name                              Value     Ov Type        Size  Object(Section)

    ../Drivers/STM32L0xx_HAL_Driver/Src/stm32l0xx_hal.c 0x00000000   Number         0  stm32l0xx_hal.o ABSOLUTE
    ../Drivers/STM32L0xx_HAL_Driver/Src/stm32l0xx_hal_adc.c 0x00000000   Number         0  stm32l0xx_hal_adc.o ABSOLUTE
    ../Drivers/STM32L0xx_HAL_Driver/Src/stm32l0xx_hal_adc_ex.c 0x00000000   Number         0  stm32l0xx_hal_adc_ex.o ABSOLUTE
    ../Drivers/STM32L0xx_HAL_Driver/Src/stm32l0xx_hal_cortex.c 0x00000000   Number         0  stm32l0xx_hal_cortex.o ABSOLUTE
    ../Drivers/STM32L0xx_HAL_Driver/Src/stm32l0xx_hal_dma.c 0x00000000   Number         0  stm32l0xx_hal_dma.o ABSOLUTE
    ../Drivers/STM32L0xx_HAL_Driver/Src/stm32l0xx_hal_flash.c 0x00000000   Number         0  stm32l0xx_hal_flash.o ABSOLUTE
    ../Drivers/STM32L0xx_HAL_Driver/Src/stm32l0xx_hal_flash_ex.c 0x00000000   Number         0  stm32l0xx_hal_flash_ex.o ABSOLUTE
    ../Drivers/STM32L0xx_HAL_Driver/Src/stm32l0xx_hal_flash_ramfunc.c 0x00000000   Number         0  stm32l0xx_hal_flash_ramfunc.o ABSOLUTE
    ../Drivers/STM32L0xx_HAL_Driver/Src/stm32l0xx_hal_gpio.c 0x00000000   Number         0  stm32l0xx_hal_gpio.o ABSOLUTE
    ../Drivers/STM32L0xx_HAL_Driver/Src/stm32l0xx_hal_i2c.c 0x00000000   Number         0  stm32l0xx_hal_i2c.o ABSOLUTE
    ../Drivers/STM32L0xx_HAL_Driver/Src/stm32l0xx_hal_i2c_ex.c 0x00000000   Number         0  stm32l0xx_hal_i2c_ex.o ABSOLUTE
    ../Drivers/STM32L0xx_HAL_Driver/Src/stm32l0xx_hal_pwr.c 0x00000000   Number         0  stm32l0xx_hal_pwr.o ABSOLUTE
    ../Drivers/STM32L0xx_HAL_Driver/Src/stm32l0xx_hal_pwr_ex.c 0x00000000   Number         0  stm32l0xx_hal_pwr_ex.o ABSOLUTE
    ../Drivers/STM32L0xx_HAL_Driver/Src/stm32l0xx_hal_rcc.c 0x00000000   Number         0  stm32l0xx_hal_rcc.o ABSOLUTE
    ../Drivers/STM32L0xx_HAL_Driver/Src/stm32l0xx_hal_rcc_ex.c 0x00000000   Number         0  stm32l0xx_hal_rcc_ex.o ABSOLUTE
    ../Drivers/STM32L0xx_HAL_Driver/Src/stm32l0xx_hal_rtc.c 0x00000000   Number         0  stm32l0xx_hal_rtc.o ABSOLUTE
    ../Drivers/STM32L0xx_HAL_Driver/Src/stm32l0xx_hal_rtc_ex.c 0x00000000   Number         0  stm32l0xx_hal_rtc_ex.o ABSOLUTE
    ../Drivers/STM32L0xx_HAL_Driver/Src/stm32l0xx_hal_tim.c 0x00000000   Number         0  stm32l0xx_hal_tim.o ABSOLUTE
    ../Drivers/STM32L0xx_HAL_Driver/Src/stm32l0xx_hal_tim_ex.c 0x00000000   Number         0  stm32l0xx_hal_tim_ex.o ABSOLUTE
    ../Drivers/STM32L0xx_HAL_Driver/Src/stm32l0xx_hal_uart.c 0x00000000   Number         0  stm32l0xx_hal_uart.o ABSOLUTE
    ../Drivers/STM32L0xx_HAL_Driver/Src/stm32l0xx_hal_uart_ex.c 0x00000000   Number         0  stm32l0xx_hal_uart_ex.o ABSOLUTE
    ../Src/adc.c                             0x00000000   Number         0  adc.o ABSOLUTE
    ../Src/dma.c                             0x00000000   Number         0  dma.o ABSOLUTE
    ../Src/gpio.c                            0x00000000   Number         0  gpio.o ABSOLUTE
    ../Src/i2c.c                             0x00000000   Number         0  i2c.o ABSOLUTE
    ../Src/main.c                            0x00000000   Number         0  main.o ABSOLUTE
    ../Src/rtc.c                             0x00000000   Number         0  rtc.o ABSOLUTE
    ../Src/stm32l0xx_hal_msp.c               0x00000000   Number         0  stm32l0xx_hal_msp.o ABSOLUTE
    ../Src/stm32l0xx_it.c                    0x00000000   Number         0  stm32l0xx_it.o ABSOLUTE
    ../Src/sys.c                             0x00000000   Number         0  sys.o ABSOLUTE
    ../Src/system_stm32l0xx.c                0x00000000   Number         0  system_stm32l0xx.o ABSOLUTE
    ../Src/usart.c                           0x00000000   Number         0  usart.o ABSOLUTE
    ../clib/microlib/ctype/ctype.c           0x00000000   Number         0  isdigit_o.o ABSOLUTE
    ../clib/microlib/ctype/ctype.c           0x00000000   Number         0  iscntrl_o.o ABSOLUTE
    ../clib/microlib/ctype/ctype.c           0x00000000   Number         0  isblank_o.o ABSOLUTE
    ../clib/microlib/ctype/ctype.c           0x00000000   Number         0  isalnum_o.o ABSOLUTE
    ../clib/microlib/ctype/ctype.c           0x00000000   Number         0  ctype_o.o ABSOLUTE
    ../clib/microlib/ctype/ctype.c           0x00000000   Number         0  isalpha_o.o ABSOLUTE
    ../clib/microlib/ctype/ctype.c           0x00000000   Number         0  islower_o.o ABSOLUTE
    ../clib/microlib/ctype/ctype.c           0x00000000   Number         0  isgraph_o.o ABSOLUTE
    ../clib/microlib/ctype/ctype.c           0x00000000   Number         0  isprint_o.o ABSOLUTE
    ../clib/microlib/ctype/ctype.c           0x00000000   Number         0  ispunct_o.o ABSOLUTE
    ../clib/microlib/ctype/ctype.c           0x00000000   Number         0  isspace_o.o ABSOLUTE
    ../clib/microlib/ctype/ctype.c           0x00000000   Number         0  isupper_o.o ABSOLUTE
    ../clib/microlib/ctype/ctype.c           0x00000000   Number         0  isxdigit_o.o ABSOLUTE
    ../clib/microlib/division.c              0x00000000   Number         0  uldiv.o ABSOLUTE
    ../clib/microlib/division.c              0x00000000   Number         0  uidiv.o ABSOLUTE
    ../clib/microlib/errno.c                 0x00000000   Number         0  errno.o ABSOLUTE
    ../clib/microlib/init/entry.s            0x00000000   Number         0  entry8a.o ABSOLUTE
    ../clib/microlib/init/entry.s            0x00000000   Number         0  entry8b.o ABSOLUTE
    ../clib/microlib/init/entry.s            0x00000000   Number         0  entry9a.o ABSOLUTE
    ../clib/microlib/init/entry.s            0x00000000   Number         0  entry9b.o ABSOLUTE
    ../clib/microlib/init/entry.s            0x00000000   Number         0  entry10a.o ABSOLUTE
    ../clib/microlib/init/entry.s            0x00000000   Number         0  entry7b.o ABSOLUTE
    ../clib/microlib/init/entry.s            0x00000000   Number         0  entry2.o ABSOLUTE
    ../clib/microlib/init/entry.s            0x00000000   Number         0  entry7a.o ABSOLUTE
    ../clib/microlib/init/entry.s            0x00000000   Number         0  entry.o ABSOLUTE
    ../clib/microlib/init/entry.s            0x00000000   Number         0  entry5.o ABSOLUTE
    ../clib/microlib/init/entry.s            0x00000000   Number         0  entry10b.o ABSOLUTE
    ../clib/microlib/init/entry.s            0x00000000   Number         0  entry11a.o ABSOLUTE
    ../clib/microlib/init/entry.s            0x00000000   Number         0  entry11b.o ABSOLUTE
    ../clib/microlib/longlong.c              0x00000000   Number         0  llshl.o ABSOLUTE
    ../clib/microlib/longlong.c              0x00000000   Number         0  llushr.o ABSOLUTE
    ../clib/microlib/longlong.c              0x00000000   Number         0  llsshr.o ABSOLUTE
    ../clib/microlib/printf/printf.c         0x00000000   Number         0  printf4.o ABSOLUTE
    ../clib/microlib/printf/printf.c         0x00000000   Number         0  printf2.o ABSOLUTE
    ../clib/microlib/printf/printf.c         0x00000000   Number         0  printf7.o ABSOLUTE
    ../clib/microlib/printf/printf.c         0x00000000   Number         0  printf3.o ABSOLUTE
    ../clib/microlib/printf/printf.c         0x00000000   Number         0  printf1.o ABSOLUTE
    ../clib/microlib/printf/printf.c         0x00000000   Number         0  printf0.o ABSOLUTE
    ../clib/microlib/printf/printf.c         0x00000000   Number         0  printfb.o ABSOLUTE
    ../clib/microlib/printf/printf.c         0x00000000   Number         0  printf5.o ABSOLUTE
    ../clib/microlib/printf/printf.c         0x00000000   Number         0  printf6.o ABSOLUTE
    ../clib/microlib/printf/printf.c         0x00000000   Number         0  printf8.o ABSOLUTE
    ../clib/microlib/printf/printf.c         0x00000000   Number         0  printfa.o ABSOLUTE
    ../clib/microlib/printf/stubs.s          0x00000000   Number         0  stubs.o ABSOLUTE
    ../clib/microlib/stdio/streams.c         0x00000000   Number         0  stdout.o ABSOLUTE
    ../clib/microlib/string/memcpy.c         0x00000000   Number         0  memcpyb.o ABSOLUTE
    ../clib/microlib/string/memcpy.c         0x00000000   Number         0  memcpya.o ABSOLUTE
    ../clib/microlib/string/memset.c         0x00000000   Number         0  memseta.o ABSOLUTE
    ../clib/microlib/string/strcmp.c         0x00000000   Number         0  strcmp.o ABSOLUTE
    ../clib/microlib/string/strcpy.c         0x00000000   Number         0  strcpy.o ABSOLUTE
    ../clib/microlib/string/strlen.c         0x00000000   Number         0  strlen.o ABSOLUTE
    ../clib/microlib/string/strstr.c         0x00000000   Number         0  strstr.o ABSOLUTE
    ../clib/microlib/string/strtok.c         0x00000000   Number         0  strtok_r.o ABSOLUTE
    ../clib/microlib/string/strtok.c         0x00000000   Number         0  strtok.o ABSOLUTE
    ../clib/microlib/stubs.s                 0x00000000   Number         0  iusefp.o ABSOLUTE
    ../clib/microlib/time/localtime.c        0x00000000   Number         0  localtime.o ABSOLUTE
    ../clib/scanf.c                          0x00000000   Number         0  atoi.o ABSOLUTE
    ../clib/scanf.c                          0x00000000   Number         0  strtol.o ABSOLUTE
    ../clib/scanf.c                          0x00000000   Number         0  _strtoul.o ABSOLUTE
    ../clib/scanf.c                          0x00000000   Number         0  _chval.o ABSOLUTE
    ../fplib/microlib/fpadd.c                0x00000000   Number         0  dadd.o ABSOLUTE
    ../fplib/microlib/fpdiv.c                0x00000000   Number         0  ddiv.o ABSOLUTE
    ../fplib/microlib/fpepilogue.c           0x00000000   Number         0  depilogue.o ABSOLUTE
    ../fplib/microlib/fpfix.c                0x00000000   Number         0  dfixul.o ABSOLUTE
    ../fplib/microlib/fpmul.c                0x00000000   Number         0  dmul.o ABSOLUTE
    ..\Drivers\My_string\my_string.c         0x00000000   Number         0  my_string.o ABSOLUTE
    ..\Drivers\OPT3001\opt3001.c             0x00000000   Number         0  opt3001.o ABSOLUTE
    ..\Drivers\STM32L0xx_HAL_Driver\Src\stm32l0xx_hal.c 0x00000000   Number         0  stm32l0xx_hal.o ABSOLUTE
    ..\Drivers\STM32L0xx_HAL_Driver\Src\stm32l0xx_hal_adc.c 0x00000000   Number         0  stm32l0xx_hal_adc.o ABSOLUTE
    ..\Drivers\STM32L0xx_HAL_Driver\Src\stm32l0xx_hal_adc_ex.c 0x00000000   Number         0  stm32l0xx_hal_adc_ex.o ABSOLUTE
    ..\Drivers\STM32L0xx_HAL_Driver\Src\stm32l0xx_hal_cortex.c 0x00000000   Number         0  stm32l0xx_hal_cortex.o ABSOLUTE
    ..\Drivers\STM32L0xx_HAL_Driver\Src\stm32l0xx_hal_dma.c 0x00000000   Number         0  stm32l0xx_hal_dma.o ABSOLUTE
    ..\Drivers\STM32L0xx_HAL_Driver\Src\stm32l0xx_hal_flash.c 0x00000000   Number         0  stm32l0xx_hal_flash.o ABSOLUTE
    ..\Drivers\STM32L0xx_HAL_Driver\Src\stm32l0xx_hal_flash_ex.c 0x00000000   Number         0  stm32l0xx_hal_flash_ex.o ABSOLUTE
    ..\Drivers\STM32L0xx_HAL_Driver\Src\stm32l0xx_hal_flash_ramfunc.c 0x00000000   Number         0  stm32l0xx_hal_flash_ramfunc.o ABSOLUTE
    ..\Drivers\STM32L0xx_HAL_Driver\Src\stm32l0xx_hal_gpio.c 0x00000000   Number         0  stm32l0xx_hal_gpio.o ABSOLUTE
    ..\Drivers\STM32L0xx_HAL_Driver\Src\stm32l0xx_hal_i2c.c 0x00000000   Number         0  stm32l0xx_hal_i2c.o ABSOLUTE
    ..\Drivers\STM32L0xx_HAL_Driver\Src\stm32l0xx_hal_i2c_ex.c 0x00000000   Number         0  stm32l0xx_hal_i2c_ex.o ABSOLUTE
    ..\Drivers\STM32L0xx_HAL_Driver\Src\stm32l0xx_hal_pwr.c 0x00000000   Number         0  stm32l0xx_hal_pwr.o ABSOLUTE
    ..\Drivers\STM32L0xx_HAL_Driver\Src\stm32l0xx_hal_pwr_ex.c 0x00000000   Number         0  stm32l0xx_hal_pwr_ex.o ABSOLUTE
    ..\Drivers\STM32L0xx_HAL_Driver\Src\stm32l0xx_hal_rcc.c 0x00000000   Number         0  stm32l0xx_hal_rcc.o ABSOLUTE
    ..\Drivers\STM32L0xx_HAL_Driver\Src\stm32l0xx_hal_rcc_ex.c 0x00000000   Number         0  stm32l0xx_hal_rcc_ex.o ABSOLUTE
    ..\Drivers\STM32L0xx_HAL_Driver\Src\stm32l0xx_hal_rtc.c 0x00000000   Number         0  stm32l0xx_hal_rtc.o ABSOLUTE
    ..\Drivers\STM32L0xx_HAL_Driver\Src\stm32l0xx_hal_rtc_ex.c 0x00000000   Number         0  stm32l0xx_hal_rtc_ex.o ABSOLUTE
    ..\Drivers\STM32L0xx_HAL_Driver\Src\stm32l0xx_hal_tim.c 0x00000000   Number         0  stm32l0xx_hal_tim.o ABSOLUTE
    ..\Drivers\STM32L0xx_HAL_Driver\Src\stm32l0xx_hal_tim_ex.c 0x00000000   Number         0  stm32l0xx_hal_tim_ex.o ABSOLUTE
    ..\Drivers\STM32L0xx_HAL_Driver\Src\stm32l0xx_hal_uart.c 0x00000000   Number         0  stm32l0xx_hal_uart.o ABSOLUTE
    ..\Drivers\STM32L0xx_HAL_Driver\Src\stm32l0xx_hal_uart_ex.c 0x00000000   Number         0  stm32l0xx_hal_uart_ex.o ABSOLUTE
    ..\Drivers\wakeup\wakeup.c               0x00000000   Number         0  wakeup.o ABSOLUTE
    ..\Src\adc.c                             0x00000000   Number         0  adc.o ABSOLUTE
    ..\Src\dma.c                             0x00000000   Number         0  dma.o ABSOLUTE
    ..\Src\gpio.c                            0x00000000   Number         0  gpio.o ABSOLUTE
    ..\Src\i2c.c                             0x00000000   Number         0  i2c.o ABSOLUTE
    ..\Src\main.c                            0x00000000   Number         0  main.o ABSOLUTE
    ..\Src\rtc.c                             0x00000000   Number         0  rtc.o ABSOLUTE
    ..\Src\stm32l0xx_hal_msp.c               0x00000000   Number         0  stm32l0xx_hal_msp.o ABSOLUTE
    ..\Src\stm32l0xx_it.c                    0x00000000   Number         0  stm32l0xx_it.o ABSOLUTE
    ..\Src\sys.c                             0x00000000   Number         0  sys.o ABSOLUTE
    ..\Src\system_stm32l0xx.c                0x00000000   Number         0  system_stm32l0xx.o ABSOLUTE
    ..\Src\usart.c                           0x00000000   Number         0  usart.o ABSOLUTE
    ..\\Drivers\\My_string\\my_string.c      0x00000000   Number         0  my_string.o ABSOLUTE
    ..\\Drivers\\OPT3001\\opt3001.c          0x00000000   Number         0  opt3001.o ABSOLUTE
    ..\\Drivers\\wakeup\\wakeup.c            0x00000000   Number         0  wakeup.o ABSOLUTE
    cdrcmple.s                               0x00000000   Number         0  cdrcmple.o ABSOLUTE
    dc.s                                     0x00000000   Number         0  dc.o ABSOLUTE
    handlers.s                               0x00000000   Number         0  handlers.o ABSOLUTE
    init.s                                   0x00000000   Number         0  init.o ABSOLUTE
    startup_stm32l051xx.s                    0x00000000   Number         0  startup_stm32l051xx.o ABSOLUTE
    RESET                                    0x08000000   Section      192  startup_stm32l051xx.o(RESET)
    .ARM.Collect$$$$00000000                 0x080000c0   Section        0  entry.o(.ARM.Collect$$$$00000000)
    .ARM.Collect$$$$00000001                 0x080000c0   Section        4  entry2.o(.ARM.Collect$$$$00000001)
    .ARM.Collect$$$$00000004                 0x080000c4   Section        4  entry5.o(.ARM.Collect$$$$00000004)
    .ARM.Collect$$$$00000008                 0x080000c8   Section        0  entry7b.o(.ARM.Collect$$$$00000008)
    .ARM.Collect$$$$0000000A                 0x080000c8   Section        0  entry8b.o(.ARM.Collect$$$$0000000A)
    .ARM.Collect$$$$0000000B                 0x080000c8   Section        8  entry9a.o(.ARM.Collect$$$$0000000B)
    .ARM.Collect$$$$0000000D                 0x080000d0   Section        0  entry10a.o(.ARM.Collect$$$$0000000D)
    .ARM.Collect$$$$0000000F                 0x080000d0   Section        0  entry11a.o(.ARM.Collect$$$$0000000F)
    .ARM.Collect$$$$00002712                 0x080000d0   Section        4  entry2.o(.ARM.Collect$$$$00002712)
    __lit__00000000                          0x080000d0   Data           4  entry2.o(.ARM.Collect$$$$00002712)
    .text                                    0x080000d4   Section       28  startup_stm32l051xx.o(.text)
    .text                                    0x080000f0   Section        0  uidiv.o(.text)
    .text                                    0x0800011c   Section        0  uldiv.o(.text)
    .text                                    0x0800017c   Section        0  localtime.o(.text)
    .text                                    0x080001f4   Section        0  memcpya.o(.text)
    .text                                    0x08000218   Section        0  memseta.o(.text)
    .text                                    0x0800023c   Section        0  strstr.o(.text)
    .text                                    0x08000264   Section        0  strlen.o(.text)
    .text                                    0x08000272   Section        0  atoi.o(.text)
    .text                                    0x0800028c   Section        0  llshl.o(.text)
    .text                                    0x080002ac   Section        0  llushr.o(.text)
    .text                                    0x080002d0   Section        0  strtol.o(.text)
    .text                                    0x08000340   Section       36  init.o(.text)
    .text                                    0x08000364   Section        0  ctype_o.o(.text)
    .text                                    0x0800036c   Section        0  _strtoul.o(.text)
    .text                                    0x08000412   Section        0  _chval.o(.text)
    i.ADC_DelayMicroSecond                   0x08000430   Section        0  stm32l0xx_hal_adc.o(i.ADC_DelayMicroSecond)
    ADC_DelayMicroSecond                     0x08000431   Thumb Code    28  stm32l0xx_hal_adc.o(i.ADC_DelayMicroSecond)
    i.Calibration_Times                      0x08000454   Section        0  rtc.o(i.Calibration_Times)
    i.DMA1_Channel4_5_6_7_IRQHandler         0x08000558   Section        0  stm32l0xx_it.o(i.DMA1_Channel4_5_6_7_IRQHandler)
    i.DMA_SetConfig                          0x08000568   Section        0  stm32l0xx_hal_dma.o(i.DMA_SetConfig)
    DMA_SetConfig                            0x08000569   Thumb Code    44  stm32l0xx_hal_dma.o(i.DMA_SetConfig)
    i.EXTI2_3_IRQHandler                     0x08000594   Section        0  stm32l0xx_it.o(i.EXTI2_3_IRQHandler)
    i.EnableUsart_IT                         0x080005a0   Section        0  usart.o(i.EnableUsart_IT)
    i.Error_Handler                          0x080005d0   Section        0  main.o(i.Error_Handler)
    i.Find_string                            0x080005d4   Section        0  my_string.o(i.Find_string)
    i.HAL_ADC_ConfigChannel                  0x08000634   Section        0  stm32l0xx_hal_adc.o(i.HAL_ADC_ConfigChannel)
    i.HAL_ADC_Init                           0x080006c8   Section        0  stm32l0xx_hal_adc.o(i.HAL_ADC_Init)
    i.HAL_ADC_MspInit                        0x08000890   Section        0  adc.o(i.HAL_ADC_MspInit)
    i.HAL_DMA_Abort                          0x080008e0   Section        0  stm32l0xx_hal_dma.o(i.HAL_DMA_Abort)
    i.HAL_DMA_Abort_IT                       0x08000924   Section        0  stm32l0xx_hal_dma.o(i.HAL_DMA_Abort_IT)
    i.HAL_DMA_GetError                       0x08000970   Section        0  stm32l0xx_hal_dma.o(i.HAL_DMA_GetError)
    i.HAL_DMA_IRQHandler                     0x08000974   Section        0  stm32l0xx_hal_dma.o(i.HAL_DMA_IRQHandler)
    i.HAL_DMA_Init                           0x08000a1c   Section        0  stm32l0xx_hal_dma.o(i.HAL_DMA_Init)
    i.HAL_DMA_Start_IT                       0x08000aac   Section        0  stm32l0xx_hal_dma.o(i.HAL_DMA_Start_IT)
    i.HAL_Delay                              0x08000b14   Section        0  stm32l0xx_hal.o(i.HAL_Delay)
    i.HAL_GPIO_EXTI_Callback                 0x08000b30   Section        0  usart.o(i.HAL_GPIO_EXTI_Callback)
    i.HAL_GPIO_EXTI_IRQHandler               0x08000b48   Section        0  stm32l0xx_hal_gpio.o(i.HAL_GPIO_EXTI_IRQHandler)
    i.HAL_GPIO_Init                          0x08000b60   Section        0  stm32l0xx_hal_gpio.o(i.HAL_GPIO_Init)
    i.HAL_GPIO_WritePin                      0x08000cd8   Section        0  stm32l0xx_hal_gpio.o(i.HAL_GPIO_WritePin)
    i.HAL_GetTick                            0x08000ce4   Section        0  stm32l0xx_hal.o(i.HAL_GetTick)
    i.HAL_I2CEx_ConfigAnalogFilter           0x08000cf0   Section        0  stm32l0xx_hal_i2c_ex.o(i.HAL_I2CEx_ConfigAnalogFilter)
    i.HAL_I2CEx_ConfigDigitalFilter          0x08000d3a   Section        0  stm32l0xx_hal_i2c_ex.o(i.HAL_I2CEx_ConfigDigitalFilter)
    i.HAL_I2C_AbortCpltCallback              0x08000d82   Section        0  stm32l0xx_hal_i2c.o(i.HAL_I2C_AbortCpltCallback)
    i.HAL_I2C_AddrCallback                   0x08000d84   Section        0  stm32l0xx_hal_i2c.o(i.HAL_I2C_AddrCallback)
    i.HAL_I2C_ER_IRQHandler                  0x08000d86   Section        0  stm32l0xx_hal_i2c.o(i.HAL_I2C_ER_IRQHandler)
    i.HAL_I2C_EV_IRQHandler                  0x08000de4   Section        0  stm32l0xx_hal_i2c.o(i.HAL_I2C_EV_IRQHandler)
    i.HAL_I2C_ErrorCallback                  0x08000df4   Section        0  stm32l0xx_hal_i2c.o(i.HAL_I2C_ErrorCallback)
    i.HAL_I2C_Init                           0x08000df8   Section        0  stm32l0xx_hal_i2c.o(i.HAL_I2C_Init)
    i.HAL_I2C_ListenCpltCallback             0x08000eac   Section        0  stm32l0xx_hal_i2c.o(i.HAL_I2C_ListenCpltCallback)
    i.HAL_I2C_MspInit                        0x08000eb0   Section        0  i2c.o(i.HAL_I2C_MspInit)
    i.HAL_I2C_SlaveRxCpltCallback            0x08000f1c   Section        0  stm32l0xx_hal_i2c.o(i.HAL_I2C_SlaveRxCpltCallback)
    i.HAL_I2C_SlaveTxCpltCallback            0x08000f1e   Section        0  stm32l0xx_hal_i2c.o(i.HAL_I2C_SlaveTxCpltCallback)
    i.HAL_IncTick                            0x08000f20   Section        0  stm32l0xx_hal.o(i.HAL_IncTick)
    i.HAL_Init                               0x08000f30   Section        0  stm32l0xx_hal.o(i.HAL_Init)
    i.HAL_InitTick                           0x08000f58   Section        0  stm32l0xx_hal.o(i.HAL_InitTick)
    i.HAL_MspInit                            0x08000f88   Section        0  stm32l0xx_hal_msp.o(i.HAL_MspInit)
    i.HAL_NVIC_EnableIRQ                     0x08000fa0   Section        0  stm32l0xx_hal_cortex.o(i.HAL_NVIC_EnableIRQ)
    i.HAL_NVIC_SetPriority                   0x08000fb4   Section        0  stm32l0xx_hal_cortex.o(i.HAL_NVIC_SetPriority)
    i.HAL_PWREx_EnableFastWakeUp             0x08000fbc   Section        0  stm32l0xx_hal_pwr_ex.o(i.HAL_PWREx_EnableFastWakeUp)
    i.HAL_PWREx_EnableUltraLowPower          0x08000fcc   Section        0  stm32l0xx_hal_pwr_ex.o(i.HAL_PWREx_EnableUltraLowPower)
    i.HAL_PWR_EnableBkUpAccess               0x08000fdc   Section        0  stm32l0xx_hal_pwr.o(i.HAL_PWR_EnableBkUpAccess)
    i.HAL_PWR_EnterSTOPMode                  0x08000fec   Section        0  stm32l0xx_hal_pwr.o(i.HAL_PWR_EnterSTOPMode)
    i.HAL_RCCEx_PeriphCLKConfig              0x08001020   Section        0  stm32l0xx_hal_rcc_ex.o(i.HAL_RCCEx_PeriphCLKConfig)
    i.HAL_RCC_ClockConfig                    0x08001184   Section        0  stm32l0xx_hal_rcc.o(i.HAL_RCC_ClockConfig)
    i.HAL_RCC_GetPCLK1Freq                   0x080012f0   Section        0  stm32l0xx_hal_rcc.o(i.HAL_RCC_GetPCLK1Freq)
    i.HAL_RCC_GetPCLK2Freq                   0x08001310   Section        0  stm32l0xx_hal_rcc.o(i.HAL_RCC_GetPCLK2Freq)
    i.HAL_RCC_GetSysClockFreq                0x08001330   Section        0  stm32l0xx_hal_rcc.o(i.HAL_RCC_GetSysClockFreq)
    i.HAL_RCC_OscConfig                      0x080013a8   Section        0  stm32l0xx_hal_rcc.o(i.HAL_RCC_OscConfig)
    i.HAL_RTCEx_BKUPRead                     0x080017c4   Section        0  stm32l0xx_hal_rtc_ex.o(i.HAL_RTCEx_BKUPRead)
    i.HAL_RTCEx_BKUPWrite                    0x080017d0   Section        0  stm32l0xx_hal_rtc_ex.o(i.HAL_RTCEx_BKUPWrite)
    i.HAL_RTCEx_WakeUpTimerEventCallback     0x080017dc   Section        0  stm32l0xx_hal_rtc_ex.o(i.HAL_RTCEx_WakeUpTimerEventCallback)
    i.HAL_RTCEx_WakeUpTimerIRQHandler        0x080017e0   Section        0  stm32l0xx_hal_rtc_ex.o(i.HAL_RTCEx_WakeUpTimerIRQHandler)
    i.HAL_RTC_GetDate                        0x08001818   Section        0  stm32l0xx_hal_rtc.o(i.HAL_RTC_GetDate)
    i.HAL_RTC_GetTime                        0x0800185c   Section        0  stm32l0xx_hal_rtc.o(i.HAL_RTC_GetTime)
    i.HAL_RTC_Init                           0x080018b8   Section        0  stm32l0xx_hal_rtc.o(i.HAL_RTC_Init)
    i.HAL_RTC_MspInit                        0x08001974   Section        0  rtc.o(i.HAL_RTC_MspInit)
    i.HAL_RTC_SetDate                        0x080019a4   Section        0  stm32l0xx_hal_rtc.o(i.HAL_RTC_SetDate)
    i.HAL_RTC_SetTime                        0x08001a68   Section        0  stm32l0xx_hal_rtc.o(i.HAL_RTC_SetTime)
    i.HAL_RTC_WaitForSynchro                 0x08001b50   Section        0  stm32l0xx_hal_rtc.o(i.HAL_RTC_WaitForSynchro)
    i.HAL_SYSTICK_Config                     0x08001b84   Section        0  stm32l0xx_hal_cortex.o(i.HAL_SYSTICK_Config)
    i.HAL_UARTEx_WakeupCallback              0x08001bb4   Section        0  stm32l0xx_hal_uart_ex.o(i.HAL_UARTEx_WakeupCallback)
    i.HAL_UART_DMAStop                       0x08001bb6   Section        0  stm32l0xx_hal_uart.o(i.HAL_UART_DMAStop)
    i.HAL_UART_ErrorCallback                 0x08001c30   Section        0  stm32l0xx_hal_uart.o(i.HAL_UART_ErrorCallback)
    i.HAL_UART_IRQHandler                    0x08001c34   Section        0  stm32l0xx_hal_uart.o(i.HAL_UART_IRQHandler)
    i.HAL_UART_Init                          0x08001d70   Section        0  stm32l0xx_hal_uart.o(i.HAL_UART_Init)
    i.HAL_UART_MspInit                       0x08001ddc   Section        0  usart.o(i.HAL_UART_MspInit)
    i.HAL_UART_Receive_DMA                   0x08001ec8   Section        0  stm32l0xx_hal_uart.o(i.HAL_UART_Receive_DMA)
    i.HAL_UART_RxCpltCallback                0x08001f80   Section        0  usart.o(i.HAL_UART_RxCpltCallback)
    i.HAL_UART_RxHalfCpltCallback            0x08001fc8   Section        0  stm32l0xx_hal_uart.o(i.HAL_UART_RxHalfCpltCallback)
    i.HAL_UART_Transmit                      0x08001fca   Section        0  stm32l0xx_hal_uart.o(i.HAL_UART_Transmit)
    i.HAL_UART_TxCpltCallback                0x08002098   Section        0  stm32l0xx_hal_uart.o(i.HAL_UART_TxCpltCallback)
    i.HardFault_Handler                      0x0800209a   Section        0  stm32l0xx_it.o(i.HardFault_Handler)
    i.I2C1_IRQHandler                        0x0800209c   Section        0  stm32l0xx_it.o(i.I2C1_IRQHandler)
    i.I2C_DMAAbort                           0x080020bc   Section        0  stm32l0xx_hal_i2c.o(i.I2C_DMAAbort)
    I2C_DMAAbort                             0x080020bd   Thumb Code    40  stm32l0xx_hal_i2c.o(i.I2C_DMAAbort)
    i.I2C_Disable_IRQ                        0x080020e4   Section        0  stm32l0xx_hal_i2c.o(i.I2C_Disable_IRQ)
    I2C_Disable_IRQ                          0x080020e5   Thumb Code    84  stm32l0xx_hal_i2c.o(i.I2C_Disable_IRQ)
    i.I2C_Flush_TXDR                         0x08002138   Section        0  stm32l0xx_hal_i2c.o(i.I2C_Flush_TXDR)
    I2C_Flush_TXDR                           0x08002139   Thumb Code    34  stm32l0xx_hal_i2c.o(i.I2C_Flush_TXDR)
    i.I2C_ITAddrCplt                         0x0800215a   Section        0  stm32l0xx_hal_i2c.o(i.I2C_ITAddrCplt)
    I2C_ITAddrCplt                           0x0800215b   Thumb Code   122  stm32l0xx_hal_i2c.o(i.I2C_ITAddrCplt)
    i.I2C_ITError                            0x080021d4   Section        0  stm32l0xx_hal_i2c.o(i.I2C_ITError)
    I2C_ITError                              0x080021d5   Thumb Code   194  stm32l0xx_hal_i2c.o(i.I2C_ITError)
    i.I2C_ITListenCplt                       0x080022a4   Section        0  stm32l0xx_hal_i2c.o(i.I2C_ITListenCplt)
    I2C_ITListenCplt                         0x080022a5   Thumb Code    94  stm32l0xx_hal_i2c.o(i.I2C_ITListenCplt)
    i.I2C_ITSlaveCplt                        0x08002308   Section        0  stm32l0xx_hal_i2c.o(i.I2C_ITSlaveCplt)
    I2C_ITSlaveCplt                          0x08002309   Thumb Code   236  stm32l0xx_hal_i2c.o(i.I2C_ITSlaveCplt)
    i.I2C_ITSlaveSeqCplt                     0x080023fc   Section        0  stm32l0xx_hal_i2c.o(i.I2C_ITSlaveSeqCplt)
    I2C_ITSlaveSeqCplt                       0x080023fd   Thumb Code    74  stm32l0xx_hal_i2c.o(i.I2C_ITSlaveSeqCplt)
    i.I2C_Slave_ISR_IT                       0x08002446   Section        0  stm32l0xx_hal_i2c.o(i.I2C_Slave_ISR_IT)
    I2C_Slave_ISR_IT                         0x08002447   Thumb Code   298  stm32l0xx_hal_i2c.o(i.I2C_Slave_ISR_IT)
    i.MX_ADC_Init                            0x08002570   Section        0  adc.o(i.MX_ADC_Init)
    i.MX_DMA_Init                            0x080025e0   Section        0  dma.o(i.MX_DMA_Init)
    i.MX_GPIO_Init                           0x08002608   Section        0  gpio.o(i.MX_GPIO_Init)
    i.MX_I2C1_Init                           0x080026d0   Section        0  i2c.o(i.MX_I2C1_Init)
    i.MX_RTC_Init                            0x08002728   Section        0  rtc.o(i.MX_RTC_Init)
    i.MX_USART1_UART_Init                    0x08002768   Section        0  usart.o(i.MX_USART1_UART_Init)
    i.MX_USART2_UART_Init                    0x080027a0   Section        0  usart.o(i.MX_USART2_UART_Init)
    i.NMI_Handler                            0x080027d8   Section        0  stm32l0xx_it.o(i.NMI_Handler)
    i.NVIC_SetPriority                       0x080027dc   Section        0  stm32l0xx_hal_cortex.o(i.NVIC_SetPriority)
    NVIC_SetPriority                         0x080027dd   Thumb Code    60  stm32l0xx_hal_cortex.o(i.NVIC_SetPriority)
    i.PendSV_Handler                         0x08002820   Section        0  stm32l0xx_it.o(i.PendSV_Handler)
    i.RTC_Bcd2ToByte                         0x08002822   Section        0  stm32l0xx_hal_rtc.o(i.RTC_Bcd2ToByte)
    i.RTC_ByteToBcd2                         0x08002832   Section        0  stm32l0xx_hal_rtc.o(i.RTC_ByteToBcd2)
    i.RTC_EnterInitMode                      0x0800284a   Section        0  stm32l0xx_hal_rtc.o(i.RTC_EnterInitMode)
    i.RTC_IRQHandler                         0x08002884   Section        0  stm32l0xx_it.o(i.RTC_IRQHandler)
    i.SVC_Handler                            0x08002894   Section        0  stm32l0xx_it.o(i.SVC_Handler)
    i.SysTick_Handler                        0x08002896   Section        0  stm32l0xx_it.o(i.SysTick_Handler)
    i.SystemClockConfig_STOP                 0x080028a0   Section        0  wakeup.o(i.SystemClockConfig_STOP)
    i.SystemClock_Config                     0x08002930   Section        0  main.o(i.SystemClock_Config)
    i.SystemInit                             0x080029a4   Section        0  system_stm32l0xx.o(i.SystemInit)
    i.SystemPower_Config                     0x080029f8   Section        0  wakeup.o(i.SystemPower_Config)
    i.UART_AdvFeatureConfig                  0x08002a9c   Section        0  stm32l0xx_hal_uart.o(i.UART_AdvFeatureConfig)
    i.UART_CheckIdleState                    0x08002b68   Section        0  stm32l0xx_hal_uart.o(i.UART_CheckIdleState)
    i.UART_DMAAbortOnError                   0x08002bc8   Section        0  stm32l0xx_hal_uart.o(i.UART_DMAAbortOnError)
    UART_DMAAbortOnError                     0x08002bc9   Thumb Code    20  stm32l0xx_hal_uart.o(i.UART_DMAAbortOnError)
    i.UART_DMAError                          0x08002bdc   Section        0  stm32l0xx_hal_uart.o(i.UART_DMAError)
    UART_DMAError                            0x08002bdd   Thumb Code    72  stm32l0xx_hal_uart.o(i.UART_DMAError)
    i.UART_DMAReceiveCplt                    0x08002c24   Section        0  stm32l0xx_hal_uart.o(i.UART_DMAReceiveCplt)
    UART_DMAReceiveCplt                      0x08002c25   Thumb Code    62  stm32l0xx_hal_uart.o(i.UART_DMAReceiveCplt)
    i.UART_DMARxHalfCplt                     0x08002c62   Section        0  stm32l0xx_hal_uart.o(i.UART_DMARxHalfCplt)
    UART_DMARxHalfCplt                       0x08002c63   Thumb Code    10  stm32l0xx_hal_uart.o(i.UART_DMARxHalfCplt)
    i.UART_EndRxTransfer                     0x08002c6c   Section        0  stm32l0xx_hal_uart.o(i.UART_EndRxTransfer)
    UART_EndRxTransfer                       0x08002c6d   Thumb Code    32  stm32l0xx_hal_uart.o(i.UART_EndRxTransfer)
    i.UART_EndTxTransfer                     0x08002c8c   Section        0  stm32l0xx_hal_uart.o(i.UART_EndTxTransfer)
    UART_EndTxTransfer                       0x08002c8d   Thumb Code    16  stm32l0xx_hal_uart.o(i.UART_EndTxTransfer)
    i.UART_SetConfig                         0x08002c9c   Section        0  stm32l0xx_hal_uart.o(i.UART_SetConfig)
    i.UART_WaitOnFlagUntilTimeout            0x08002ec4   Section        0  stm32l0xx_hal_uart.o(i.UART_WaitOnFlagUntilTimeout)
    i.USART2_IRQHandler                      0x08002f28   Section        0  stm32l0xx_it.o(i.USART2_IRQHandler)
    i.__0printf$6                            0x08002f7c   Section        0  printf6.o(i.__0printf$6)
    i.__ARM_common_switch8                   0x08002f9c   Section        0  stm32l0xx_hal_dma.o(i.__ARM_common_switch8)
    i.__aeabi_errno_addr                     0x08002fb8   Section        0  errno.o(i.__aeabi_errno_addr)
    i.__scatterload_copy                     0x08002fc0   Section       14  handlers.o(i.__scatterload_copy)
    i.__scatterload_null                     0x08002fce   Section        2  handlers.o(i.__scatterload_null)
    i.__scatterload_zeroinit                 0x08002fd0   Section       14  handlers.o(i.__scatterload_zeroinit)
    i._printf_core                           0x08002fe0   Section        0  printf6.o(i._printf_core)
    _printf_core                             0x08002fe1   Thumb Code   768  printf6.o(i._printf_core)
    i._printf_post_padding                   0x080032e4   Section        0  printf6.o(i._printf_post_padding)
    _printf_post_padding                     0x080032e5   Thumb Code    32  printf6.o(i._printf_post_padding)
    i._printf_pre_padding                    0x08003304   Section        0  printf6.o(i._printf_pre_padding)
    _printf_pre_padding                      0x08003305   Thumb Code    44  printf6.o(i._printf_pre_padding)
    i.fputc                                  0x08003330   Section        0  usart.o(i.fputc)
    i.main                                   0x0800334c   Section        0  main.o(i.main)
    i.time2Stamp                             0x08003680   Section        0  rtc.o(i.time2Stamp)
    .constdata                               0x080037d4   Section       24  rtc.o(.constdata)
    .constdata                               0x080037ec   Section       25  system_stm32l0xx.o(.constdata)
    .constdata                               0x08003805   Section        8  system_stm32l0xx.o(.constdata)
    .constdata                               0x0800380d   Section       12  localtime.o(.constdata)
    monlen                                   0x0800380d   Data          12  localtime.o(.constdata)
    .constdata                               0x08003819   Section      129  ctype_o.o(.constdata)
    .constdata                               0x0800389c   Section        4  ctype_o.o(.constdata)
    table                                    0x0800389c   Data           4  ctype_o.o(.constdata)
    .data                                    0x20000000   Section        4  rtc.o(.data)
    .data                                    0x20000004   Section        4  stm32l0xx_hal.o(.data)
    .data                                    0x20000008   Section        4  system_stm32l0xx.o(.data)
    .data                                    0x2000000c   Section        4  stdout.o(.data)
    .data                                    0x20000010   Section        4  errno.o(.data)
    _errno                                   0x20000010   Data           4  errno.o(.data)
    .bss                                     0x20000014   Section       92  adc.o(.bss)
    .bss                                     0x20000070   Section       76  i2c.o(.bss)
    .bss                                     0x200000bc   Section       56  rtc.o(.bss)
    .bss                                     0x200000f4   Section     1104  usart.o(.bss)
    .bss                                     0x20000544   Section       44  localtime.o(.bss)
    _tms                                     0x20000544   Data          44  localtime.o(.bss)
    STACK                                    0x20000570   Section     1024  startup_stm32l051xx.o(STACK)

    Global Symbols

    Symbol Name                              Value     Ov Type        Size  Object(Section)

    BuildAttributes$$THM_ISAv3M$S$PE$A:L22$X:L11$S22$IEEE1$IW$USESV6$~STKCKD$USESV7$~SHL$OSPACE$ROPI$EBA8$MICROLIB$REQ8$PRES8$EABIv2 0x00000000   Number         0  anon$$obj.o ABSOLUTE
    __ARM_use_no_argv                        0x00000000   Number         0  main.o ABSOLUTE
    _printf_a                                0x00000000   Number         0  stubs.o ABSOLUTE
    _printf_c                                0x00000000   Number         0  stubs.o ABSOLUTE
    _printf_charcount                        0x00000000   Number         0  stubs.o ABSOLUTE
    _printf_d                                0x00000000   Number         0  stubs.o ABSOLUTE
    _printf_e                                0x00000000   Number         0  stubs.o ABSOLUTE
    _printf_f                                0x00000000   Number         0  stubs.o ABSOLUTE
    _printf_flags                            0x00000000   Number         0  stubs.o ABSOLUTE
    _printf_fp_dec                           0x00000000   Number         0  stubs.o ABSOLUTE
    _printf_fp_hex                           0x00000000   Number         0  stubs.o ABSOLUTE
    _printf_g                                0x00000000   Number         0  stubs.o ABSOLUTE
    _printf_i                                0x00000000   Number         0  stubs.o ABSOLUTE
    _printf_int_dec                          0x00000000   Number         0  stubs.o ABSOLUTE
    _printf_l                                0x00000000   Number         0  stubs.o ABSOLUTE
    _printf_lc                               0x00000000   Number         0  stubs.o ABSOLUTE
    _printf_ll                               0x00000000   Number         0  stubs.o ABSOLUTE
    _printf_lld                              0x00000000   Number         0  stubs.o ABSOLUTE
    _printf_lli                              0x00000000   Number         0  stubs.o ABSOLUTE
    _printf_llo                              0x00000000   Number         0  stubs.o ABSOLUTE
    _printf_llu                              0x00000000   Number         0  stubs.o ABSOLUTE
    _printf_llx                              0x00000000   Number         0  stubs.o ABSOLUTE
    _printf_longlong_dec                     0x00000000   Number         0  stubs.o ABSOLUTE
    _printf_longlong_hex                     0x00000000   Number         0  stubs.o ABSOLUTE
    _printf_longlong_oct                     0x00000000   Number         0  stubs.o ABSOLUTE
    _printf_ls                               0x00000000   Number         0  stubs.o ABSOLUTE
    _printf_mbtowc                           0x00000000   Number         0  stubs.o ABSOLUTE
    _printf_n                                0x00000000   Number         0  stubs.o ABSOLUTE
    _printf_o                                0x00000000   Number         0  stubs.o ABSOLUTE
    _printf_p                                0x00000000   Number         0  stubs.o ABSOLUTE
    _printf_percent                          0x00000000   Number         0  stubs.o ABSOLUTE
    _printf_pre_padding                      0x00000000   Number         0  stubs.o ABSOLUTE
    _printf_return_value                     0x00000000   Number         0  stubs.o ABSOLUTE
    _printf_s                                0x00000000   Number         0  stubs.o ABSOLUTE
    _printf_sizespec                         0x00000000   Number         0  stubs.o ABSOLUTE
    _printf_str                              0x00000000   Number         0  stubs.o ABSOLUTE
    _printf_truncate_signed                  0x00000000   Number         0  stubs.o ABSOLUTE
    _printf_truncate_unsigned                0x00000000   Number         0  stubs.o ABSOLUTE
    _printf_u                                0x00000000   Number         0  stubs.o ABSOLUTE
    _printf_wc                               0x00000000   Number         0  stubs.o ABSOLUTE
    _printf_wctomb                           0x00000000   Number         0  stubs.o ABSOLUTE
    _printf_widthprec                        0x00000000   Number         0  stubs.o ABSOLUTE
    _printf_x                                0x00000000   Number         0  stubs.o ABSOLUTE
    __cpp_initialize__aeabi_                  - Undefined Weak Reference
    __cxa_finalize                            - Undefined Weak Reference
    __decompress                              - Undefined Weak Reference
    _clock_init                               - Undefined Weak Reference
    _microlib_exit                            - Undefined Weak Reference
    __Vectors_Size                           0x000000c0   Number         0  startup_stm32l051xx.o ABSOLUTE
    __Vectors                                0x08000000   Data           4  startup_stm32l051xx.o(RESET)
    __Vectors_End                            0x080000c0   Data           0  startup_stm32l051xx.o(RESET)
    __main                                   0x080000c1   Thumb Code     0  entry.o(.ARM.Collect$$$$00000000)
    _main_stk                                0x080000c1   Thumb Code     0  entry2.o(.ARM.Collect$$$$00000001)
    _main_scatterload                        0x080000c5   Thumb Code     0  entry5.o(.ARM.Collect$$$$00000004)
    __main_after_scatterload                 0x080000c9   Thumb Code     0  entry5.o(.ARM.Collect$$$$00000004)
    _main_clock                              0x080000c9   Thumb Code     0  entry7b.o(.ARM.Collect$$$$00000008)
    _main_cpp_init                           0x080000c9   Thumb Code     0  entry8b.o(.ARM.Collect$$$$0000000A)
    _main_init                               0x080000c9   Thumb Code     0  entry9a.o(.ARM.Collect$$$$0000000B)
    __rt_final_cpp                           0x080000d1   Thumb Code     0  entry10a.o(.ARM.Collect$$$$0000000D)
    __rt_final_exit                          0x080000d1   Thumb Code     0  entry11a.o(.ARM.Collect$$$$0000000F)
    Reset_Handler                            0x080000d5   Thumb Code     8  startup_stm32l051xx.o(.text)
    ADC1_COMP_IRQHandler                     0x080000e7   Thumb Code     0  startup_stm32l051xx.o(.text)
    DMA1_Channel1_IRQHandler                 0x080000e7   Thumb Code     0  startup_stm32l051xx.o(.text)
    DMA1_Channel2_3_IRQHandler               0x080000e7   Thumb Code     0  startup_stm32l051xx.o(.text)
    EXTI0_1_IRQHandler                       0x080000e7   Thumb Code     0  startup_stm32l051xx.o(.text)
    EXTI4_15_IRQHandler                      0x080000e7   Thumb Code     0  startup_stm32l051xx.o(.text)
    FLASH_IRQHandler                         0x080000e7   Thumb Code     0  startup_stm32l051xx.o(.text)
    I2C2_IRQHandler                          0x080000e7   Thumb Code     0  startup_stm32l051xx.o(.text)
    LPTIM1_IRQHandler                        0x080000e7   Thumb Code     0  startup_stm32l051xx.o(.text)
    LPUART1_IRQHandler                       0x080000e7   Thumb Code     0  startup_stm32l051xx.o(.text)
    PVD_IRQHandler                           0x080000e7   Thumb Code     0  startup_stm32l051xx.o(.text)
    RCC_IRQHandler                           0x080000e7   Thumb Code     0  startup_stm32l051xx.o(.text)
    SPI1_IRQHandler                          0x080000e7   Thumb Code     0  startup_stm32l051xx.o(.text)
    SPI2_IRQHandler                          0x080000e7   Thumb Code     0  startup_stm32l051xx.o(.text)
    TIM21_IRQHandler                         0x080000e7   Thumb Code     0  startup_stm32l051xx.o(.text)
    TIM22_IRQHandler                         0x080000e7   Thumb Code     0  startup_stm32l051xx.o(.text)
    TIM2_IRQHandler                          0x080000e7   Thumb Code     0  startup_stm32l051xx.o(.text)
    TIM6_IRQHandler                          0x080000e7   Thumb Code     0  startup_stm32l051xx.o(.text)
    USART1_IRQHandler                        0x080000e7   Thumb Code     0  startup_stm32l051xx.o(.text)
    WWDG_IRQHandler                          0x080000e7   Thumb Code     0  startup_stm32l051xx.o(.text)
    __aeabi_uidiv                            0x080000f1   Thumb Code     0  uidiv.o(.text)
    __aeabi_uidivmod                         0x080000f1   Thumb Code    44  uidiv.o(.text)
    __aeabi_uldivmod                         0x0800011d   Thumb Code    96  uldiv.o(.text)
    localtime                                0x0800017d   Thumb Code   104  localtime.o(.text)
    __aeabi_memcpy                           0x080001f5   Thumb Code    36  memcpya.o(.text)
    __aeabi_memcpy4                          0x080001f5   Thumb Code     0  memcpya.o(.text)
    __aeabi_memcpy8                          0x080001f5   Thumb Code     0  memcpya.o(.text)
    __aeabi_memset                           0x08000219   Thumb Code    14  memseta.o(.text)
    __aeabi_memset4                          0x08000219   Thumb Code     0  memseta.o(.text)
    __aeabi_memset8                          0x08000219   Thumb Code     0  memseta.o(.text)
    __aeabi_memclr                           0x08000227   Thumb Code     4  memseta.o(.text)
    __aeabi_memclr4                          0x08000227   Thumb Code     0  memseta.o(.text)
    __aeabi_memclr8                          0x08000227   Thumb Code     0  memseta.o(.text)
    _memset$wrapper                          0x0800022b   Thumb Code    18  memseta.o(.text)
    strstr                                   0x0800023d   Thumb Code    40  strstr.o(.text)
    strlen                                   0x08000265   Thumb Code    14  strlen.o(.text)
    atoi                                     0x08000273   Thumb Code    26  atoi.o(.text)
    __aeabi_llsl                             0x0800028d   Thumb Code    32  llshl.o(.text)
    _ll_shift_l                              0x0800028d   Thumb Code     0  llshl.o(.text)
    __aeabi_llsr                             0x080002ad   Thumb Code    34  llushr.o(.text)
    _ll_ushift_r                             0x080002ad   Thumb Code     0  llushr.o(.text)
    strtol                                   0x080002d1   Thumb Code   108  strtol.o(.text)
    __scatterload                            0x08000341   Thumb Code    28  init.o(.text)
    __scatterload_rt2                        0x08000341   Thumb Code     0  init.o(.text)
    __rt_ctype_table                         0x08000365   Thumb Code     4  ctype_o.o(.text)
    _strtoul                                 0x0800036d   Thumb Code   166  _strtoul.o(.text)
    _chval                                   0x08000413   Thumb Code    30  _chval.o(.text)
    Calibration_Times                        0x08000455   Thumb Code   184  rtc.o(i.Calibration_Times)
    DMA1_Channel4_5_6_7_IRQHandler           0x08000559   Thumb Code    10  stm32l0xx_it.o(i.DMA1_Channel4_5_6_7_IRQHandler)
    EXTI2_3_IRQHandler                       0x08000595   Thumb Code    10  stm32l0xx_it.o(i.EXTI2_3_IRQHandler)
    EnableUsart_IT                           0x080005a1   Thumb Code    40  usart.o(i.EnableUsart_IT)
    Error_Handler                            0x080005d1   Thumb Code     2  main.o(i.Error_Handler)
    Find_string                              0x080005d5   Thumb Code    72  my_string.o(i.Find_string)
    HAL_ADC_ConfigChannel                    0x08000635   Thumb Code   140  stm32l0xx_hal_adc.o(i.HAL_ADC_ConfigChannel)
    HAL_ADC_Init                             0x080006c9   Thumb Code   446  stm32l0xx_hal_adc.o(i.HAL_ADC_Init)
    HAL_ADC_MspInit                          0x08000891   Thumb Code    72  adc.o(i.HAL_ADC_MspInit)
    HAL_DMA_Abort                            0x080008e1   Thumb Code    68  stm32l0xx_hal_dma.o(i.HAL_DMA_Abort)
    HAL_DMA_Abort_IT                         0x08000925   Thumb Code    76  stm32l0xx_hal_dma.o(i.HAL_DMA_Abort_IT)
    HAL_DMA_GetError                         0x08000971   Thumb Code     4  stm32l0xx_hal_dma.o(i.HAL_DMA_GetError)
    HAL_DMA_IRQHandler                       0x08000975   Thumb Code   168  stm32l0xx_hal_dma.o(i.HAL_DMA_IRQHandler)
    HAL_DMA_Init                             0x08000a1d   Thumb Code   132  stm32l0xx_hal_dma.o(i.HAL_DMA_Init)
    HAL_DMA_Start_IT                         0x08000aad   Thumb Code   104  stm32l0xx_hal_dma.o(i.HAL_DMA_Start_IT)
    HAL_Delay                                0x08000b15   Thumb Code    28  stm32l0xx_hal.o(i.HAL_Delay)
    HAL_GPIO_EXTI_Callback                   0x08000b31   Thumb Code    18  usart.o(i.HAL_GPIO_EXTI_Callback)
    HAL_GPIO_EXTI_IRQHandler                 0x08000b49   Thumb Code    18  stm32l0xx_hal_gpio.o(i.HAL_GPIO_EXTI_IRQHandler)
    HAL_GPIO_Init                            0x08000b61   Thumb Code   346  stm32l0xx_hal_gpio.o(i.HAL_GPIO_Init)
    HAL_GPIO_WritePin                        0x08000cd9   Thumb Code    12  stm32l0xx_hal_gpio.o(i.HAL_GPIO_WritePin)
    HAL_GetTick                              0x08000ce5   Thumb Code     6  stm32l0xx_hal.o(i.HAL_GetTick)
    HAL_I2CEx_ConfigAnalogFilter             0x08000cf1   Thumb Code    74  stm32l0xx_hal_i2c_ex.o(i.HAL_I2CEx_ConfigAnalogFilter)
    HAL_I2CEx_ConfigDigitalFilter            0x08000d3b   Thumb Code    72  stm32l0xx_hal_i2c_ex.o(i.HAL_I2CEx_ConfigDigitalFilter)
    HAL_I2C_AbortCpltCallback                0x08000d83   Thumb Code     2  stm32l0xx_hal_i2c.o(i.HAL_I2C_AbortCpltCallback)
    HAL_I2C_AddrCallback                     0x08000d85   Thumb Code     2  stm32l0xx_hal_i2c.o(i.HAL_I2C_AddrCallback)
    HAL_I2C_ER_IRQHandler                    0x08000d87   Thumb Code    94  stm32l0xx_hal_i2c.o(i.HAL_I2C_ER_IRQHandler)
    HAL_I2C_EV_IRQHandler                    0x08000de5   Thumb Code    16  stm32l0xx_hal_i2c.o(i.HAL_I2C_EV_IRQHandler)
    HAL_I2C_ErrorCallback                    0x08000df5   Thumb Code     2  stm32l0xx_hal_i2c.o(i.HAL_I2C_ErrorCallback)
    HAL_I2C_Init                             0x08000df9   Thumb Code   176  stm32l0xx_hal_i2c.o(i.HAL_I2C_Init)
    HAL_I2C_ListenCpltCallback               0x08000ead   Thumb Code     2  stm32l0xx_hal_i2c.o(i.HAL_I2C_ListenCpltCallback)
    HAL_I2C_MspInit                          0x08000eb1   Thumb Code    94  i2c.o(i.HAL_I2C_MspInit)
    HAL_I2C_SlaveRxCpltCallback              0x08000f1d   Thumb Code     2  stm32l0xx_hal_i2c.o(i.HAL_I2C_SlaveRxCpltCallback)
    HAL_I2C_SlaveTxCpltCallback              0x08000f1f   Thumb Code     2  stm32l0xx_hal_i2c.o(i.HAL_I2C_SlaveTxCpltCallback)
    HAL_IncTick                              0x08000f21   Thumb Code    10  stm32l0xx_hal.o(i.HAL_IncTick)
    HAL_Init                                 0x08000f31   Thumb Code    36  stm32l0xx_hal.o(i.HAL_Init)
    HAL_InitTick                             0x08000f59   Thumb Code    44  stm32l0xx_hal.o(i.HAL_InitTick)
    HAL_MspInit                              0x08000f89   Thumb Code    20  stm32l0xx_hal_msp.o(i.HAL_MspInit)
    HAL_NVIC_EnableIRQ                       0x08000fa1   Thumb Code    14  stm32l0xx_hal_cortex.o(i.HAL_NVIC_EnableIRQ)
    HAL_NVIC_SetPriority                     0x08000fb5   Thumb Code     8  stm32l0xx_hal_cortex.o(i.HAL_NVIC_SetPriority)
    HAL_PWREx_EnableFastWakeUp               0x08000fbd   Thumb Code    12  stm32l0xx_hal_pwr_ex.o(i.HAL_PWREx_EnableFastWakeUp)
    HAL_PWREx_EnableUltraLowPower            0x08000fcd   Thumb Code    12  stm32l0xx_hal_pwr_ex.o(i.HAL_PWREx_EnableUltraLowPower)
    HAL_PWR_EnableBkUpAccess                 0x08000fdd   Thumb Code    12  stm32l0xx_hal_pwr.o(i.HAL_PWR_EnableBkUpAccess)
    HAL_PWR_EnterSTOPMode                    0x08000fed   Thumb Code    44  stm32l0xx_hal_pwr.o(i.HAL_PWR_EnterSTOPMode)
    HAL_RCCEx_PeriphCLKConfig                0x08001021   Thumb Code   342  stm32l0xx_hal_rcc_ex.o(i.HAL_RCCEx_PeriphCLKConfig)
    HAL_RCC_ClockConfig                      0x08001185   Thumb Code   344  stm32l0xx_hal_rcc.o(i.HAL_RCC_ClockConfig)
    HAL_RCC_GetPCLK1Freq                     0x080012f1   Thumb Code    20  stm32l0xx_hal_rcc.o(i.HAL_RCC_GetPCLK1Freq)
    HAL_RCC_GetPCLK2Freq                     0x08001311   Thumb Code    20  stm32l0xx_hal_rcc.o(i.HAL_RCC_GetPCLK2Freq)
    HAL_RCC_GetSysClockFreq                  0x08001331   Thumb Code   100  stm32l0xx_hal_rcc.o(i.HAL_RCC_GetSysClockFreq)
    HAL_RCC_OscConfig                        0x080013a9   Thumb Code  1052  stm32l0xx_hal_rcc.o(i.HAL_RCC_OscConfig)
    HAL_RTCEx_BKUPRead                       0x080017c5   Thumb Code    12  stm32l0xx_hal_rtc_ex.o(i.HAL_RTCEx_BKUPRead)
    HAL_RTCEx_BKUPWrite                      0x080017d1   Thumb Code    12  stm32l0xx_hal_rtc_ex.o(i.HAL_RTCEx_BKUPWrite)
    HAL_RTCEx_WakeUpTimerEventCallback       0x080017dd   Thumb Code     2  stm32l0xx_hal_rtc_ex.o(i.HAL_RTCEx_WakeUpTimerEventCallback)
    HAL_RTCEx_WakeUpTimerIRQHandler          0x080017e1   Thumb Code    48  stm32l0xx_hal_rtc_ex.o(i.HAL_RTCEx_WakeUpTimerIRQHandler)
    HAL_RTC_GetDate                          0x08001819   Thumb Code    68  stm32l0xx_hal_rtc.o(i.HAL_RTC_GetDate)
    HAL_RTC_GetTime                          0x0800185d   Thumb Code    88  stm32l0xx_hal_rtc.o(i.HAL_RTC_GetTime)
    HAL_RTC_Init                             0x080018b9   Thumb Code   184  stm32l0xx_hal_rtc.o(i.HAL_RTC_Init)
    HAL_RTC_MspInit                          0x08001975   Thumb Code    40  rtc.o(i.HAL_RTC_MspInit)
    HAL_RTC_SetDate                          0x080019a5   Thumb Code   190  stm32l0xx_hal_rtc.o(i.HAL_RTC_SetDate)
    HAL_RTC_SetTime                          0x08001a69   Thumb Code   228  stm32l0xx_hal_rtc.o(i.HAL_RTC_SetTime)
    HAL_RTC_WaitForSynchro                   0x08001b51   Thumb Code    52  stm32l0xx_hal_rtc.o(i.HAL_RTC_WaitForSynchro)
    HAL_SYSTICK_Config                       0x08001b85   Thumb Code    38  stm32l0xx_hal_cortex.o(i.HAL_SYSTICK_Config)
    HAL_UARTEx_WakeupCallback                0x08001bb5   Thumb Code     2  stm32l0xx_hal_uart_ex.o(i.HAL_UARTEx_WakeupCallback)
    HAL_UART_DMAStop                         0x08001bb7   Thumb Code   122  stm32l0xx_hal_uart.o(i.HAL_UART_DMAStop)
    HAL_UART_ErrorCallback                   0x08001c31   Thumb Code     2  stm32l0xx_hal_uart.o(i.HAL_UART_ErrorCallback)
    HAL_UART_IRQHandler                      0x08001c35   Thumb Code   310  stm32l0xx_hal_uart.o(i.HAL_UART_IRQHandler)
    HAL_UART_Init                            0x08001d71   Thumb Code   106  stm32l0xx_hal_uart.o(i.HAL_UART_Init)
    HAL_UART_MspInit                         0x08001ddd   Thumb Code   214  usart.o(i.HAL_UART_MspInit)
    HAL_UART_Receive_DMA                     0x08001ec9   Thumb Code   170  stm32l0xx_hal_uart.o(i.HAL_UART_Receive_DMA)
    HAL_UART_RxCpltCallback                  0x08001f81   Thumb Code    48  usart.o(i.HAL_UART_RxCpltCallback)
    HAL_UART_RxHalfCpltCallback              0x08001fc9   Thumb Code     2  stm32l0xx_hal_uart.o(i.HAL_UART_RxHalfCpltCallback)
    HAL_UART_Transmit                        0x08001fcb   Thumb Code   206  stm32l0xx_hal_uart.o(i.HAL_UART_Transmit)
    HAL_UART_TxCpltCallback                  0x08002099   Thumb Code     2  stm32l0xx_hal_uart.o(i.HAL_UART_TxCpltCallback)
    HardFault_Handler                        0x0800209b   Thumb Code     2  stm32l0xx_it.o(i.HardFault_Handler)
    I2C1_IRQHandler                          0x0800209d   Thumb Code    28  stm32l0xx_it.o(i.I2C1_IRQHandler)
    MX_ADC_Init                              0x08002571   Thumb Code   100  adc.o(i.MX_ADC_Init)
    MX_DMA_Init                              0x080025e1   Thumb Code    36  dma.o(i.MX_DMA_Init)
    MX_GPIO_Init                             0x08002609   Thumb Code   184  gpio.o(i.MX_GPIO_Init)
    MX_I2C1_Init                             0x080026d1   Thumb Code    76  i2c.o(i.MX_I2C1_Init)
    MX_RTC_Init                              0x08002729   Thumb Code    56  rtc.o(i.MX_RTC_Init)
    MX_USART1_UART_Init                      0x08002769   Thumb Code    48  usart.o(i.MX_USART1_UART_Init)
    MX_USART2_UART_Init                      0x080027a1   Thumb Code    48  usart.o(i.MX_USART2_UART_Init)
    NMI_Handler                              0x080027d9   Thumb Code     2  stm32l0xx_it.o(i.NMI_Handler)
    PendSV_Handler                           0x08002821   Thumb Code     2  stm32l0xx_it.o(i.PendSV_Handler)
    RTC_Bcd2ToByte                           0x08002823   Thumb Code    16  stm32l0xx_hal_rtc.o(i.RTC_Bcd2ToByte)
    RTC_ByteToBcd2                           0x08002833   Thumb Code    24  stm32l0xx_hal_rtc.o(i.RTC_ByteToBcd2)
    RTC_EnterInitMode                        0x0800284b   Thumb Code    56  stm32l0xx_hal_rtc.o(i.RTC_EnterInitMode)
    RTC_IRQHandler                           0x08002885   Thumb Code    10  stm32l0xx_it.o(i.RTC_IRQHandler)
    SVC_Handler                              0x08002895   Thumb Code     2  stm32l0xx_it.o(i.SVC_Handler)
    SysTick_Handler                          0x08002897   Thumb Code     8  stm32l0xx_it.o(i.SysTick_Handler)
    SystemClockConfig_STOP                   0x080028a1   Thumb Code   138  wakeup.o(i.SystemClockConfig_STOP)
    SystemClock_Config                       0x08002931   Thumb Code   112  main.o(i.SystemClock_Config)
    SystemInit                               0x080029a5   Thumb Code    66  system_stm32l0xx.o(i.SystemInit)
    SystemPower_Config                       0x080029f9   Thumb Code   128  wakeup.o(i.SystemPower_Config)
    UART_AdvFeatureConfig                    0x08002a9d   Thumb Code   202  stm32l0xx_hal_uart.o(i.UART_AdvFeatureConfig)
    UART_CheckIdleState                      0x08002b69   Thumb Code    90  stm32l0xx_hal_uart.o(i.UART_CheckIdleState)
    UART_SetConfig                           0x08002c9d   Thumb Code   506  stm32l0xx_hal_uart.o(i.UART_SetConfig)
    UART_WaitOnFlagUntilTimeout              0x08002ec5   Thumb Code    98  stm32l0xx_hal_uart.o(i.UART_WaitOnFlagUntilTimeout)
    USART2_IRQHandler                        0x08002f29   Thumb Code    68  stm32l0xx_it.o(i.USART2_IRQHandler)
    __0printf$6                              0x08002f7d   Thumb Code    24  printf6.o(i.__0printf$6)
    __1printf$6                              0x08002f7d   Thumb Code     0  printf6.o(i.__0printf$6)
    __2printf                                0x08002f7d   Thumb Code     0  printf6.o(i.__0printf$6)
    __ARM_common_switch8                     0x08002f9d   Thumb Code    26  stm32l0xx_hal_dma.o(i.__ARM_common_switch8)
    __aeabi_errno_addr                       0x08002fb9   Thumb Code     4  errno.o(i.__aeabi_errno_addr)
    __rt_errno_addr                          0x08002fb9   Thumb Code     0  errno.o(i.__aeabi_errno_addr)
    __scatterload_copy                       0x08002fc1   Thumb Code    14  handlers.o(i.__scatterload_copy)
    __scatterload_null                       0x08002fcf   Thumb Code     2  handlers.o(i.__scatterload_null)
    __scatterload_zeroinit                   0x08002fd1   Thumb Code    14  handlers.o(i.__scatterload_zeroinit)
    fputc                                    0x08003331   Thumb Code    18  usart.o(i.fputc)
    main                                     0x0800334d   Thumb Code   660  main.o(i.main)
    time2Stamp                               0x08003681   Thumb Code   256  rtc.o(i.time2Stamp)
    AHBPrescTable                            0x080037ec   Data          16  system_stm32l0xx.o(.constdata)
    PLLMulTable                              0x080037fc   Data           9  system_stm32l0xx.o(.constdata)
    APBPrescTable                            0x08003805   Data           8  system_stm32l0xx.o(.constdata)
    __ctype_table                            0x08003819   Data         129  ctype_o.o(.constdata)
    Region$$Table$$Base                      0x080038a0   Number         0  anon$$obj.o(Region$$Table)
    Region$$Table$$Limit                     0x080038c0   Number         0  anon$$obj.o(Region$$Table)
    sdatestructure                           0x20000000   Data           4  rtc.o(.data)
    uwTick                                   0x20000004   Data           4  stm32l0xx_hal.o(.data)
    SystemCoreClock                          0x20000008   Data           4  system_stm32l0xx.o(.data)
    __stdout                                 0x2000000c   Data           4  stdout.o(.data)
    hadc                                     0x20000014   Data          92  adc.o(.bss)
    hi2c1                                    0x20000070   Data          76  i2c.o(.bss)
    stimestructure                           0x200000bc   Data          20  rtc.o(.bss)
    hrtc                                     0x200000d0   Data          36  rtc.o(.bss)
    Usart2type                               0x200000f4   Data         774  usart.o(.bss)
    huart1                                   0x200003fc   Data         128  usart.o(.bss)
    huart2                                   0x2000047c   Data         128  usart.o(.bss)
    hdma_usart2_rx                           0x200004fc   Data          72  usart.o(.bss)
    __initial_sp                             0x20000970   Data           0  startup_stm32l051xx.o(STACK)



==============================================================================

Memory Map of the image

  Image Entry point : 0x080000c1

  Load Region LR_IROM1 (Base: 0x08000000, Size: 0x000038d4, Max: 0x00010000, ABSOLUTE)

    Execution Region ER_IROM1 (Exec base: 0x08000000, Load base: 0x08000000, Size: 0x000038c0, Max: 0x00010000, ABSOLUTE)

    Exec Addr    Load Addr    Size         Type   Attr      Idx    E Section Name        Object

    0x08000000   0x08000000   0x000000c0   Data   RO            3    RESET               startup_stm32l051xx.o
    0x080000c0   0x080000c0   0x00000000   Code   RO         3266  * .ARM.Collect$$$$00000000  mc_p.l(entry.o)
    0x080000c0   0x080000c0   0x00000004   Code   RO         3560    .ARM.Collect$$$$00000001  mc_p.l(entry2.o)
    0x080000c4   0x080000c4   0x00000004   Code   RO         3563    .ARM.Collect$$$$00000004  mc_p.l(entry5.o)
    0x080000c8   0x080000c8   0x00000000   Code   RO         3565    .ARM.Collect$$$$00000008  mc_p.l(entry7b.o)
    0x080000c8   0x080000c8   0x00000000   Code   RO         3567    .ARM.Collect$$$$0000000A  mc_p.l(entry8b.o)
    0x080000c8   0x080000c8   0x00000008   Code   RO         3568    .ARM.Collect$$$$0000000B  mc_p.l(entry9a.o)
    0x080000d0   0x080000d0   0x00000000   Code   RO         3570    .ARM.Collect$$$$0000000D  mc_p.l(entry10a.o)
    0x080000d0   0x080000d0   0x00000000   Code   RO         3572    .ARM.Collect$$$$0000000F  mc_p.l(entry11a.o)
    0x080000d0   0x080000d0   0x00000004   Code   RO         3561    .ARM.Collect$$$$00002712  mc_p.l(entry2.o)
    0x080000d4   0x080000d4   0x0000001c   Code   RO            4    .text               startup_stm32l051xx.o
    0x080000f0   0x080000f0   0x0000002c   Code   RO         3269    .text               mc_p.l(uidiv.o)
    0x0800011c   0x0800011c   0x00000060   Code   RO         3271    .text               mc_p.l(uldiv.o)
    0x0800017c   0x0800017c   0x00000078   Code   RO         3273    .text               mc_p.l(localtime.o)
    0x080001f4   0x080001f4   0x00000024   Code   RO         3277    .text               mc_p.l(memcpya.o)
    0x08000218   0x08000218   0x00000024   Code   RO         3279    .text               mc_p.l(memseta.o)
    0x0800023c   0x0800023c   0x00000028   Code   RO         3281    .text               mc_p.l(strstr.o)
    0x08000264   0x08000264   0x0000000e   Code   RO         3283    .text               mc_p.l(strlen.o)
    0x08000272   0x08000272   0x0000001a   Code   RO         3558    .text               mc_p.l(atoi.o)
    0x0800028c   0x0800028c   0x00000020   Code   RO         3575    .text               mc_p.l(llshl.o)
    0x080002ac   0x080002ac   0x00000022   Code   RO         3577    .text               mc_p.l(llushr.o)
    0x080002ce   0x080002ce   0x00000002   PAD
    0x080002d0   0x080002d0   0x00000070   Code   RO         3586    .text               mc_p.l(strtol.o)
    0x08000340   0x08000340   0x00000024   Code   RO         3599    .text               mc_p.l(init.o)
    0x08000364   0x08000364   0x00000008   Code   RO         3603    .text               mc_p.l(ctype_o.o)
    0x0800036c   0x0800036c   0x000000a6   Code   RO         3631    .text               mc_p.l(_strtoul.o)
    0x08000412   0x08000412   0x0000001e   Code   RO         3637    .text               mc_p.l(_chval.o)
    0x08000430   0x08000430   0x00000024   Code   RO          675    i.ADC_DelayMicroSecond  stm32l0xx_hal_adc.o
    0x08000454   0x08000454   0x00000104   Code   RO          418    i.Calibration_Times  rtc.o
    0x08000558   0x08000558   0x00000010   Code   RO          573    i.DMA1_Channel4_5_6_7_IRQHandler  stm32l0xx_it.o
    0x08000568   0x08000568   0x0000002c   Code   RO         2070    i.DMA_SetConfig     stm32l0xx_hal_dma.o
    0x08000594   0x08000594   0x0000000a   Code   RO          574    i.EXTI2_3_IRQHandler  stm32l0xx_it.o
    0x0800059e   0x0800059e   0x00000002   PAD
    0x080005a0   0x080005a0   0x00000030   Code   RO          499    i.EnableUsart_IT    usart.o
    0x080005d0   0x080005d0   0x00000002   Code   RO          253    i.Error_Handler     main.o
    0x080005d2   0x080005d2   0x00000002   PAD
    0x080005d4   0x080005d4   0x00000060   Code   RO          203    i.Find_string       my_string.o
    0x08000634   0x08000634   0x00000094   Code   RO          679    i.HAL_ADC_ConfigChannel  stm32l0xx_hal_adc.o
    0x080006c8   0x080006c8   0x000001c8   Code   RO          688    i.HAL_ADC_Init      stm32l0xx_hal_adc.o
    0x08000890   0x08000890   0x00000050   Code   RO          323    i.HAL_ADC_MspInit   adc.o
    0x080008e0   0x080008e0   0x00000044   Code   RO         2071    i.HAL_DMA_Abort     stm32l0xx_hal_dma.o
    0x08000924   0x08000924   0x0000004c   Code   RO         2072    i.HAL_DMA_Abort_IT  stm32l0xx_hal_dma.o
    0x08000970   0x08000970   0x00000004   Code   RO         2074    i.HAL_DMA_GetError  stm32l0xx_hal_dma.o
    0x08000974   0x08000974   0x000000a8   Code   RO         2076    i.HAL_DMA_IRQHandler  stm32l0xx_hal_dma.o
    0x08000a1c   0x08000a1c   0x00000090   Code   RO         2077    i.HAL_DMA_Init      stm32l0xx_hal_dma.o
    0x08000aac   0x08000aac   0x00000068   Code   RO         2081    i.HAL_DMA_Start_IT  stm32l0xx_hal_dma.o
    0x08000b14   0x08000b14   0x0000001c   Code   RO          917    i.HAL_Delay         stm32l0xx_hal.o
    0x08000b30   0x08000b30   0x00000018   Code   RO          500    i.HAL_GPIO_EXTI_Callback  usart.o
    0x08000b48   0x08000b48   0x00000018   Code   RO         2010    i.HAL_GPIO_EXTI_IRQHandler  stm32l0xx_hal_gpio.o
    0x08000b60   0x08000b60   0x00000178   Code   RO         2011    i.HAL_GPIO_Init     stm32l0xx_hal_gpio.o
    0x08000cd8   0x08000cd8   0x0000000c   Code   RO         2015    i.HAL_GPIO_WritePin  stm32l0xx_hal_gpio.o
    0x08000ce4   0x08000ce4   0x0000000c   Code   RO          921    i.HAL_GetTick       stm32l0xx_hal.o
    0x08000cf0   0x08000cf0   0x0000004a   Code   RO         1549    i.HAL_I2CEx_ConfigAnalogFilter  stm32l0xx_hal_i2c_ex.o
    0x08000d3a   0x08000d3a   0x00000048   Code   RO         1550    i.HAL_I2CEx_ConfigDigitalFilter  stm32l0xx_hal_i2c_ex.o
    0x08000d82   0x08000d82   0x00000002   Code   RO         1096    i.HAL_I2C_AbortCpltCallback  stm32l0xx_hal_i2c.o
    0x08000d84   0x08000d84   0x00000002   Code   RO         1097    i.HAL_I2C_AddrCallback  stm32l0xx_hal_i2c.o
    0x08000d86   0x08000d86   0x0000005e   Code   RO         1100    i.HAL_I2C_ER_IRQHandler  stm32l0xx_hal_i2c.o
    0x08000de4   0x08000de4   0x00000010   Code   RO         1101    i.HAL_I2C_EV_IRQHandler  stm32l0xx_hal_i2c.o
    0x08000df4   0x08000df4   0x00000002   Code   RO         1103    i.HAL_I2C_ErrorCallback  stm32l0xx_hal_i2c.o
    0x08000df6   0x08000df6   0x00000002   PAD
    0x08000df8   0x08000df8   0x000000b4   Code   RO         1107    i.HAL_I2C_Init      stm32l0xx_hal_i2c.o
    0x08000eac   0x08000eac   0x00000002   Code   RO         1109    i.HAL_I2C_ListenCpltCallback  stm32l0xx_hal_i2c.o
    0x08000eae   0x08000eae   0x00000002   PAD
    0x08000eb0   0x08000eb0   0x0000006c   Code   RO          381    i.HAL_I2C_MspInit   i2c.o
    0x08000f1c   0x08000f1c   0x00000002   Code   RO         1133    i.HAL_I2C_SlaveRxCpltCallback  stm32l0xx_hal_i2c.o
    0x08000f1e   0x08000f1e   0x00000002   Code   RO         1134    i.HAL_I2C_SlaveTxCpltCallback  stm32l0xx_hal_i2c.o
    0x08000f20   0x08000f20   0x00000010   Code   RO          925    i.HAL_IncTick       stm32l0xx_hal.o
    0x08000f30   0x08000f30   0x00000028   Code   RO          926    i.HAL_Init          stm32l0xx_hal.o
    0x08000f58   0x08000f58   0x00000030   Code   RO          927    i.HAL_InitTick      stm32l0xx_hal.o
    0x08000f88   0x08000f88   0x00000018   Code   RO          651    i.HAL_MspInit       stm32l0xx_hal_msp.o
    0x08000fa0   0x08000fa0   0x00000014   Code   RO         2340    i.HAL_NVIC_EnableIRQ  stm32l0xx_hal_cortex.o
    0x08000fb4   0x08000fb4   0x00000008   Code   RO         2344    i.HAL_NVIC_SetPriority  stm32l0xx_hal_cortex.o
    0x08000fbc   0x08000fbc   0x00000010   Code   RO         2282    i.HAL_PWREx_EnableFastWakeUp  stm32l0xx_hal_pwr_ex.o
    0x08000fcc   0x08000fcc   0x00000010   Code   RO         2284    i.HAL_PWREx_EnableUltraLowPower  stm32l0xx_hal_pwr_ex.o
    0x08000fdc   0x08000fdc   0x00000010   Code   RO         2170    i.HAL_PWR_EnableBkUpAccess  stm32l0xx_hal_pwr.o
    0x08000fec   0x08000fec   0x00000034   Code   RO         2177    i.HAL_PWR_EnterSTOPMode  stm32l0xx_hal_pwr.o
    0x08001020   0x08001020   0x00000164   Code   RO         1698    i.HAL_RCCEx_PeriphCLKConfig  stm32l0xx_hal_rcc_ex.o
    0x08001184   0x08001184   0x0000016c   Code   RO         1600    i.HAL_RCC_ClockConfig  stm32l0xx_hal_rcc.o
    0x080012f0   0x080012f0   0x00000020   Code   RO         1606    i.HAL_RCC_GetPCLK1Freq  stm32l0xx_hal_rcc.o
    0x08001310   0x08001310   0x00000020   Code   RO         1607    i.HAL_RCC_GetPCLK2Freq  stm32l0xx_hal_rcc.o
    0x08001330   0x08001330   0x00000078   Code   RO         1608    i.HAL_RCC_GetSysClockFreq  stm32l0xx_hal_rcc.o
    0x080013a8   0x080013a8   0x0000041c   Code   RO         1611    i.HAL_RCC_OscConfig  stm32l0xx_hal_rcc.o
    0x080017c4   0x080017c4   0x0000000c   Code   RO         2581    i.HAL_RTCEx_BKUPRead  stm32l0xx_hal_rtc_ex.o
    0x080017d0   0x080017d0   0x0000000c   Code   RO         2582    i.HAL_RTCEx_BKUPWrite  stm32l0xx_hal_rtc_ex.o
    0x080017dc   0x080017dc   0x00000002   Code   RO         2611    i.HAL_RTCEx_WakeUpTimerEventCallback  stm32l0xx_hal_rtc_ex.o
    0x080017de   0x080017de   0x00000002   PAD
    0x080017e0   0x080017e0   0x00000038   Code   RO         2612    i.HAL_RTCEx_WakeUpTimerIRQHandler  stm32l0xx_hal_rtc_ex.o
    0x08001818   0x08001818   0x00000044   Code   RO         2452    i.HAL_RTC_GetDate   stm32l0xx_hal_rtc.o
    0x0800185c   0x0800185c   0x0000005c   Code   RO         2454    i.HAL_RTC_GetTime   stm32l0xx_hal_rtc.o
    0x080018b8   0x080018b8   0x000000bc   Code   RO         2455    i.HAL_RTC_Init      stm32l0xx_hal_rtc.o
    0x08001974   0x08001974   0x00000030   Code   RO          420    i.HAL_RTC_MspInit   rtc.o
    0x080019a4   0x080019a4   0x000000c4   Code   RO         2461    i.HAL_RTC_SetDate   stm32l0xx_hal_rtc.o
    0x08001a68   0x08001a68   0x000000e8   Code   RO         2462    i.HAL_RTC_SetTime   stm32l0xx_hal_rtc.o
    0x08001b50   0x08001b50   0x00000034   Code   RO         2463    i.HAL_RTC_WaitForSynchro  stm32l0xx_hal_rtc.o
    0x08001b84   0x08001b84   0x00000030   Code   RO         2348    i.HAL_SYSTICK_Config  stm32l0xx_hal_cortex.o
    0x08001bb4   0x08001bb4   0x00000002   Code   RO         3179    i.HAL_UARTEx_WakeupCallback  stm32l0xx_hal_uart_ex.o
    0x08001bb6   0x08001bb6   0x0000007a   Code   RO         2840    i.HAL_UART_DMAStop  stm32l0xx_hal_uart.o
    0x08001c30   0x08001c30   0x00000002   Code   RO         2842    i.HAL_UART_ErrorCallback  stm32l0xx_hal_uart.o
    0x08001c32   0x08001c32   0x00000002   PAD
    0x08001c34   0x08001c34   0x0000013c   Code   RO         2845    i.HAL_UART_IRQHandler  stm32l0xx_hal_uart.o
    0x08001d70   0x08001d70   0x0000006a   Code   RO         2846    i.HAL_UART_Init     stm32l0xx_hal_uart.o
    0x08001dda   0x08001dda   0x00000002   PAD
    0x08001ddc   0x08001ddc   0x000000ec   Code   RO          502    i.HAL_UART_MspInit  usart.o
    0x08001ec8   0x08001ec8   0x000000b8   Code   RO         2850    i.HAL_UART_Receive_DMA  stm32l0xx_hal_uart.o
    0x08001f80   0x08001f80   0x00000048   Code   RO          503    i.HAL_UART_RxCpltCallback  usart.o
    0x08001fc8   0x08001fc8   0x00000002   Code   RO         2853    i.HAL_UART_RxHalfCpltCallback  stm32l0xx_hal_uart.o
    0x08001fca   0x08001fca   0x000000ce   Code   RO         2854    i.HAL_UART_Transmit  stm32l0xx_hal_uart.o
    0x08002098   0x08002098   0x00000002   Code   RO         2857    i.HAL_UART_TxCpltCallback  stm32l0xx_hal_uart.o
    0x0800209a   0x0800209a   0x00000002   Code   RO          575    i.HardFault_Handler  stm32l0xx_it.o
    0x0800209c   0x0800209c   0x00000020   Code   RO          576    i.I2C1_IRQHandler   stm32l0xx_it.o
    0x080020bc   0x080020bc   0x00000028   Code   RO         1146    i.I2C_DMAAbort      stm32l0xx_hal_i2c.o
    0x080020e4   0x080020e4   0x00000054   Code   RO         1152    i.I2C_Disable_IRQ   stm32l0xx_hal_i2c.o
    0x08002138   0x08002138   0x00000022   Code   RO         1154    i.I2C_Flush_TXDR    stm32l0xx_hal_i2c.o
    0x0800215a   0x0800215a   0x0000007a   Code   RO         1155    i.I2C_ITAddrCplt    stm32l0xx_hal_i2c.o
    0x080021d4   0x080021d4   0x000000d0   Code   RO         1156    i.I2C_ITError       stm32l0xx_hal_i2c.o
    0x080022a4   0x080022a4   0x00000064   Code   RO         1157    i.I2C_ITListenCplt  stm32l0xx_hal_i2c.o
    0x08002308   0x08002308   0x000000f4   Code   RO         1160    i.I2C_ITSlaveCplt   stm32l0xx_hal_i2c.o
    0x080023fc   0x080023fc   0x0000004a   Code   RO         1161    i.I2C_ITSlaveSeqCplt  stm32l0xx_hal_i2c.o
    0x08002446   0x08002446   0x0000012a   Code   RO         1168    i.I2C_Slave_ISR_IT  stm32l0xx_hal_i2c.o
    0x08002570   0x08002570   0x00000070   Code   RO          324    i.MX_ADC_Init       adc.o
    0x080025e0   0x080025e0   0x00000028   Code   RO          360    i.MX_DMA_Init       dma.o
    0x08002608   0x08002608   0x000000c8   Code   RO          302    i.MX_GPIO_Init      gpio.o
    0x080026d0   0x080026d0   0x00000058   Code   RO          382    i.MX_I2C1_Init      i2c.o
    0x08002728   0x08002728   0x00000040   Code   RO          421    i.MX_RTC_Init       rtc.o
    0x08002768   0x08002768   0x00000038   Code   RO          504    i.MX_USART1_UART_Init  usart.o
    0x080027a0   0x080027a0   0x00000038   Code   RO          505    i.MX_USART2_UART_Init  usart.o
    0x080027d8   0x080027d8   0x00000002   Code   RO          577    i.NMI_Handler       stm32l0xx_it.o
    0x080027da   0x080027da   0x00000002   PAD
    0x080027dc   0x080027dc   0x00000044   Code   RO         2350    i.NVIC_SetPriority  stm32l0xx_hal_cortex.o
    0x08002820   0x08002820   0x00000002   Code   RO          578    i.PendSV_Handler    stm32l0xx_it.o
    0x08002822   0x08002822   0x00000010   Code   RO         2464    i.RTC_Bcd2ToByte    stm32l0xx_hal_rtc.o
    0x08002832   0x08002832   0x00000018   Code   RO         2465    i.RTC_ByteToBcd2    stm32l0xx_hal_rtc.o
    0x0800284a   0x0800284a   0x00000038   Code   RO         2466    i.RTC_EnterInitMode  stm32l0xx_hal_rtc.o
    0x08002882   0x08002882   0x00000002   PAD
    0x08002884   0x08002884   0x00000010   Code   RO          579    i.RTC_IRQHandler    stm32l0xx_it.o
    0x08002894   0x08002894   0x00000002   Code   RO          580    i.SVC_Handler       stm32l0xx_it.o
    0x08002896   0x08002896   0x00000008   Code   RO          581    i.SysTick_Handler   stm32l0xx_it.o
    0x0800289e   0x0800289e   0x00000002   PAD
    0x080028a0   0x080028a0   0x00000090   Code   RO          157    i.SystemClockConfig_STOP  wakeup.o
    0x08002930   0x08002930   0x00000074   Code   RO          254    i.SystemClock_Config  main.o
    0x080029a4   0x080029a4   0x00000054   Code   RO         3235    i.SystemInit        system_stm32l0xx.o
    0x080029f8   0x080029f8   0x000000a4   Code   RO          158    i.SystemPower_Config  wakeup.o
    0x08002a9c   0x08002a9c   0x000000ca   Code   RO         2859    i.UART_AdvFeatureConfig  stm32l0xx_hal_uart.o
    0x08002b66   0x08002b66   0x00000002   PAD
    0x08002b68   0x08002b68   0x00000060   Code   RO         2860    i.UART_CheckIdleState  stm32l0xx_hal_uart.o
    0x08002bc8   0x08002bc8   0x00000014   Code   RO         2861    i.UART_DMAAbortOnError  stm32l0xx_hal_uart.o
    0x08002bdc   0x08002bdc   0x00000048   Code   RO         2862    i.UART_DMAError     stm32l0xx_hal_uart.o
    0x08002c24   0x08002c24   0x0000003e   Code   RO         2863    i.UART_DMAReceiveCplt  stm32l0xx_hal_uart.o
    0x08002c62   0x08002c62   0x0000000a   Code   RO         2865    i.UART_DMARxHalfCplt  stm32l0xx_hal_uart.o
    0x08002c6c   0x08002c6c   0x00000020   Code   RO         2871    i.UART_EndRxTransfer  stm32l0xx_hal_uart.o
    0x08002c8c   0x08002c8c   0x00000010   Code   RO         2872    i.UART_EndTxTransfer  stm32l0xx_hal_uart.o
    0x08002c9c   0x08002c9c   0x00000228   Code   RO         2875    i.UART_SetConfig    stm32l0xx_hal_uart.o
    0x08002ec4   0x08002ec4   0x00000062   Code   RO         2878    i.UART_WaitOnFlagUntilTimeout  stm32l0xx_hal_uart.o
    0x08002f26   0x08002f26   0x00000002   PAD
    0x08002f28   0x08002f28   0x00000054   Code   RO          582    i.USART2_IRQHandler  stm32l0xx_it.o
    0x08002f7c   0x08002f7c   0x00000020   Code   RO         3452    i.__0printf$6       mc_p.l(printf6.o)
    0x08002f9c   0x08002f9c   0x0000001a   Code   RO         2156    i.__ARM_common_switch8  stm32l0xx_hal_dma.o
    0x08002fb6   0x08002fb6   0x00000002   PAD
    0x08002fb8   0x08002fb8   0x00000008   Code   RO         3579    i.__aeabi_errno_addr  mc_p.l(errno.o)
    0x08002fc0   0x08002fc0   0x0000000e   Code   RO         3641    i.__scatterload_copy  mc_p.l(handlers.o)
    0x08002fce   0x08002fce   0x00000002   Code   RO         3642    i.__scatterload_null  mc_p.l(handlers.o)
    0x08002fd0   0x08002fd0   0x0000000e   Code   RO         3643    i.__scatterload_zeroinit  mc_p.l(handlers.o)
    0x08002fde   0x08002fde   0x00000002   PAD
    0x08002fe0   0x08002fe0   0x00000304   Code   RO         3459    i._printf_core      mc_p.l(printf6.o)
    0x080032e4   0x080032e4   0x00000020   Code   RO         3460    i._printf_post_padding  mc_p.l(printf6.o)
    0x08003304   0x08003304   0x0000002c   Code   RO         3461    i._printf_pre_padding  mc_p.l(printf6.o)
    0x08003330   0x08003330   0x0000001c   Code   RO          507    i.fputc             usart.o
    0x0800334c   0x0800334c   0x00000334   Code   RO          255    i.main              main.o
    0x08003680   0x08003680   0x00000154   Code   RO          423    i.time2Stamp        rtc.o
    0x080037d4   0x080037d4   0x00000018   Data   RO          425    .constdata          rtc.o
    0x080037ec   0x080037ec   0x00000019   Data   RO         3236    .constdata          system_stm32l0xx.o
    0x08003805   0x08003805   0x00000008   Data   RO         3237    .constdata          system_stm32l0xx.o
    0x0800380d   0x0800380d   0x0000000c   Data   RO         3275    .constdata          mc_p.l(localtime.o)
    0x08003819   0x08003819   0x00000081   Data   RO         3604    .constdata          mc_p.l(ctype_o.o)
    0x0800389a   0x0800389a   0x00000002   PAD
    0x0800389c   0x0800389c   0x00000004   Data   RO         3605    .constdata          mc_p.l(ctype_o.o)
    0x080038a0   0x080038a0   0x00000020   Data   RO         3639    Region$$Table       anon$$obj.o


    Execution Region RW_IRAM1 (Exec base: 0x20000000, Load base: 0x080038c0, Size: 0x00000970, Max: 0x00002000, ABSOLUTE)

    Exec Addr    Load Addr    Size         Type   Attr      Idx    E Section Name        Object

    0x20000000   0x080038c0   0x00000004   Data   RW          426    .data               rtc.o
    0x20000004   0x080038c4   0x00000004   Data   RW          936    .data               stm32l0xx_hal.o
    0x20000008   0x080038c8   0x00000004   Data   RW         3238    .data               system_stm32l0xx.o
    0x2000000c   0x080038cc   0x00000004   Data   RW         3574    .data               mc_p.l(stdout.o)
    0x20000010   0x080038d0   0x00000004   Data   RW         3582    .data               mc_p.l(errno.o)
    0x20000014        -       0x0000005c   Zero   RW          325    .bss                adc.o
    0x20000070        -       0x0000004c   Zero   RW          383    .bss                i2c.o
    0x200000bc        -       0x00000038   Zero   RW          424    .bss                rtc.o
    0x200000f4        -       0x00000450   Zero   RW          508    .bss                usart.o
    0x20000544        -       0x0000002c   Zero   RW         3274    .bss                mc_p.l(localtime.o)
    0x20000570        -       0x00000400   Zero   RW            1    STACK               startup_stm32l051xx.o


==============================================================================

Image component sizes


      Code (inc. data)   RO Data    RW Data    ZI Data      Debug   Object Name

       192         20          0          0         92       1551   adc.o
        40          4          0          0          0        698   dma.o
       200         16          0          0          0        903   gpio.o
       196         26          0          0         76       1525   i2c.o
       938        164          0          0          0       3380   main.o
        96         24          0          0          0        786   my_string.o
         0          0          0          0          0     339172   opt3001.o
       712        176         24          4         56       2994   rtc.o
        28          8        192          0       1024        624   startup_stm32l051xx.o
       144         20          0          4          0       3683   stm32l0xx_hal.o
       640         26          0          0          0       2879   stm32l0xx_hal_adc.o
       144         24          0          0          0      10597   stm32l0xx_hal_cortex.o
       634         12          0          0          0       5505   stm32l0xx_hal_dma.o
       412         36          0          0          0       2911   stm32l0xx_hal_gpio.o
      1506         32          0          0          0      13691   stm32l0xx_hal_i2c.o
       146          0          0          0          0       1875   stm32l0xx_hal_i2c_ex.o
        24          4          0          0          0        422   stm32l0xx_hal_msp.o
        68         12          0          0          0       1119   stm32l0xx_hal_pwr.o
        32          8          0          0          0       1017   stm32l0xx_hal_pwr_ex.o
      1600         90          0          0          0       5456   stm32l0xx_hal_rcc.o
       356         14          0          0          0       1428   stm32l0xx_hal_rcc_ex.o
       924         18          0          0          0       7104   stm32l0xx_hal_rtc.o
        82          8          0          0          0       3182   stm32l0xx_hal_rtc_ex.o
      2100         96          0          0          0      14078   stm32l0xx_hal_uart.o
         2          0          0          0          0        968   stm32l0xx_hal_uart_ex.o
       174         32          0          0          0       4384   stm32l0xx_it.o
        84         18         33          4          0       1179   system_stm32l0xx.o
       520         86          0          0       1104       4701   usart.o
       308         42          0          0          0       1718   wakeup.o

    ----------------------------------------------------------------------
     12328       1016        281         12       2352     439530   Object Totals
         0          0         32          0          0          0   (incl. Generated)
        26          0          0          0          0          0   (incl. Padding)

    ----------------------------------------------------------------------

      Code (inc. data)   RO Data    RW Data    ZI Data      Debug   Library Member Name

        30          0          0          0          0         60   _chval.o
       166          0          0          0          0         84   _strtoul.o
        26          0          0          0          0         72   atoi.o
         8          4        133          0          0         60   ctype_o.o
         0          0          0          0          0          0   entry.o
         0          0          0          0          0          0   entry10a.o
         0          0          0          0          0          0   entry11a.o
         8          4          0          0          0          0   entry2.o
         4          0          0          0          0          0   entry5.o
         0          0          0          0          0          0   entry7b.o
         0          0          0          0          0          0   entry8b.o
         8          4          0          0          0          0   entry9a.o
         8          4          0          4          0         60   errno.o
        30          0          0          0          0          0   handlers.o
        36          8          0          0          0         68   init.o
        32          0          0          0          0         68   llshl.o
        34          0          0          0          0         68   llushr.o
       120         16         12          0         44         72   localtime.o
        36          0          0          0          0         60   memcpya.o
        36          0          0          0          0        100   memseta.o
       880         12          0          0          0        324   printf6.o
         0          0          0          4          0          0   stdout.o
        14          0          0          0          0         60   strlen.o
        40          0          0          0          0         72   strstr.o
       112          4          0          0          0         76   strtol.o
        44          0          0          0          0         72   uidiv.o
        96          0          0          0          0         84   uldiv.o

    ----------------------------------------------------------------------
      1772         56        147          8         44       1460   Library Totals
         4          0          2          0          0          0   (incl. Padding)

    ----------------------------------------------------------------------

      Code (inc. data)   RO Data    RW Data    ZI Data      Debug   Library Name

      1768         56        145          8         44       1460   mc_p.l

    ----------------------------------------------------------------------
      1772         56        147          8         44       1460   Library Totals

    ----------------------------------------------------------------------

==============================================================================


      Code (inc. data)   RO Data    RW Data    ZI Data      Debug   

     14100       1072        428         20       2396     435290   Grand Totals
     14100       1072        428         20       2396     435290   ELF Image Totals
     14100       1072        428         20          0          0   ROM Totals

==============================================================================

    Total RO  Size (Code + RO Data)                14528 (  14.19kB)
    Total RW  Size (RW Data + ZI Data)              2416 (   2.36kB)
    Total ROM Size (Code + RO Data + RW Data)      14548 (  14.21kB)

==============================================================================

